{
  "_format": "hh-sol-artifact-1",
  "contractName": "Fixed",
  "sourceName": "contracts/Fixed.sol",
  "abi": [
    {
      "anonymous": false,
      "inputs": [
        {
          "indexed": true,
          "internalType": "address",
          "name": "nftAddr",
          "type": "address"
        },
        {
          "indexed": true,
          "internalType": "address",
          "name": "buyer",
          "type": "address"
        },
        {
          "indexed": true,
          "internalType": "uint256",
          "name": "tokenId",
          "type": "uint256"
        },
        {
          "indexed": false,
          "internalType": "uint256",
          "name": "price",
          "type": "uint256"
        }
      ],
      "name": "FixedPurchase",
      "type": "event"
    },
    {
      "anonymous": false,
      "inputs": [
        {
          "indexed": true,
          "internalType": "address",
          "name": "nftAddr",
          "type": "address"
        },
        {
          "indexed": true,
          "internalType": "address",
          "name": "seller",
          "type": "address"
        },
        {
          "indexed": true,
          "internalType": "uint256",
          "name": "tokenId",
          "type": "uint256"
        }
      ],
      "name": "FixedRevoke",
      "type": "event"
    },
    {
      "anonymous": false,
      "inputs": [
        {
          "indexed": true,
          "internalType": "address",
          "name": "nftAddr",
          "type": "address"
        },
        {
          "indexed": true,
          "internalType": "address",
          "name": "seller",
          "type": "address"
        },
        {
          "indexed": true,
          "internalType": "uint256",
          "name": "tokenId",
          "type": "uint256"
        },
        {
          "indexed": false,
          "internalType": "uint256",
          "name": "price",
          "type": "uint256"
        },
        {
          "indexed": false,
          "internalType": "uint256",
          "name": "endTime",
          "type": "uint256"
        }
      ],
      "name": "FixedStart",
      "type": "event"
    },
    {
      "anonymous": false,
      "inputs": [
        {
          "indexed": true,
          "internalType": "address",
          "name": "nftAddr",
          "type": "address"
        },
        {
          "indexed": true,
          "internalType": "address",
          "name": "seller",
          "type": "address"
        },
        {
          "indexed": true,
          "internalType": "uint256",
          "name": "tokenId",
          "type": "uint256"
        },
        {
          "indexed": false,
          "internalType": "uint256",
          "name": "newPrice",
          "type": "uint256"
        }
      ],
      "name": "FixedUpdate",
      "type": "event"
    },
    {
      "inputs": [
        {
          "internalType": "address",
          "name": "nftAddr",
          "type": "address"
        },
        {
          "internalType": "uint256",
          "name": "tokenId",
          "type": "uint256"
        }
      ],
      "name": "fixedPurchase",
      "outputs": [],
      "stateMutability": "payable",
      "type": "function"
    },
    {
      "inputs": [
        {
          "internalType": "address",
          "name": "nftAddr",
          "type": "address"
        },
        {
          "internalType": "uint256",
          "name": "tokenId",
          "type": "uint256"
        }
      ],
      "name": "fixedRevoke",
      "outputs": [],
      "stateMutability": "nonpayable",
      "type": "function"
    },
    {
      "inputs": [
        {
          "internalType": "address",
          "name": "nftAddr",
          "type": "address"
        },
        {
          "internalType": "uint256",
          "name": "tokenId",
          "type": "uint256"
        },
        {
          "internalType": "uint256",
          "name": "price",
          "type": "uint256"
        },
        {
          "internalType": "uint256",
          "name": "endTime",
          "type": "uint256"
        }
      ],
      "name": "fixedStart",
      "outputs": [],
      "stateMutability": "nonpayable",
      "type": "function"
    },
    {
      "inputs": [
        {
          "internalType": "address",
          "name": "nftAddr",
          "type": "address"
        },
        {
          "internalType": "uint256",
          "name": "tokenId",
          "type": "uint256"
        },
        {
          "internalType": "uint256",
          "name": "price",
          "type": "uint256"
        }
      ],
      "name": "fixedUpdate",
      "outputs": [],
      "stateMutability": "nonpayable",
      "type": "function"
    },
    {
      "inputs": [
        {
          "internalType": "address",
          "name": "nftAddr",
          "type": "address"
        },
        {
          "internalType": "uint256",
          "name": "tokenId",
          "type": "uint256"
        }
      ],
      "name": "getFixed",
      "outputs": [
        {
          "internalType": "address",
          "name": "",
          "type": "address"
        },
        {
          "internalType": "uint256",
          "name": "",
          "type": "uint256"
        },
        {
          "internalType": "uint256",
          "name": "",
          "type": "uint256"
        }
      ],
      "stateMutability": "view",
      "type": "function"
    },
    {
      "inputs": [
        {
          "internalType": "address",
          "name": "nftAddr",
          "type": "address"
        },
        {
          "internalType": "uint256",
          "name": "tokenId",
          "type": "uint256"
        }
      ],
      "name": "getStatus",
      "outputs": [
        {
          "internalType": "enum MarketState.Status",
          "name": "",
          "type": "uint8"
        }
      ],
      "stateMutability": "view",
      "type": "function"
    },
    {
      "inputs": [
        {
          "internalType": "address",
          "name": "operator",
          "type": "address"
        },
        {
          "internalType": "address",
          "name": "from",
          "type": "address"
        },
        {
          "internalType": "uint256",
          "name": "tokenId",
          "type": "uint256"
        },
        {
          "internalType": "bytes",
          "name": "data",
          "type": "bytes"
        }
      ],
      "name": "onERC721Received",
      "outputs": [
        {
          "internalType": "bytes4",
          "name": "",
          "type": "bytes4"
        }
      ],
      "stateMutability": "nonpayable",
      "type": "function"
    }
  ],
  "bytecode": "0x608060405234801561001057600080fd5b506112a1806100206000396000f3fe6080604052600436106100705760003560e01c80637053bfc81161004e5780637053bfc814610163578063b1e7d07814610176578063dbc0fd52146101bb578063fd68832b146101db57600080fd5b8063059711b814610075578063150b7a02146100975780634ce0ef9514610112575b600080fd5b34801561008157600080fd5b5061009561009036600461119a565b6101fb565b005b3480156100a357600080fd5b506100dc6100b23660046110d5565b7f150b7a020000000000000000000000000000000000000000000000000000000095945050505050565b6040517fffffffff0000000000000000000000000000000000000000000000000000000090911681526020015b60405180910390f35b34801561011e57600080fd5b5061015661012d36600461116f565b6001600160a01b0391909116600090815260208181526040808320938352929052205460ff1690565b6040516101099190611208565b61009561017136600461116f565b610458565b34801561018257600080fd5b5061019661019136600461116f565b610806565b604080516001600160a01b039094168452602084019290925290820152606001610109565b3480156101c757600080fd5b506100956101d636600461116f565b6108d9565b3480156101e757600080fd5b506100956101f63660046111ce565b610b5a565b6040516331a9108f60e11b81526004810183905283908390829030906001600160a01b03831690636352211e9060240160206040518083038186803b15801561024357600080fd5b505afa158015610257573d6000803e3d6000fd5b505050506040513d601f19601f8201168201806040525081019061027b91906110b2565b6001600160a01b0316146102c85760405162461bcd60e51b815260206004820152600f60248201526e496e76616c69642073657474696e6760881b60448201526064015b60405180910390fd5b6001600160a01b03861660009081526020818152604080832088845290915290205460019060ff16600581111561030f57634e487b7160e01b600052602160045260246000fd5b1461035c5760405162461bcd60e51b815260206004820152601960248201527f43616e2774206d6f64696679206669786564207072696365210000000000000060448201526064016102bf565b6001600160a01b0380871660009081526001602090815260408083208984529091529020805490911633146103bf5760405162461bcd60e51b81526020600482015260096024820152682737ba1037bbb732b960b91b60448201526064016102bf565b80600201544211156104015760405162461bcd60e51b815260206004820152600b60248201526a125d09dcc813dd995c995960aa1b60448201526064016102bf565b60018101859055805460405186815287916001600160a01b0390811691908a16907f75a666af8f5a0e39c625929cb6e9373f80bf8bb381c7be01f455f325c0bf26c09060200160405180910390a450505050505050565b6040516331a9108f60e11b81526004810182905282908290829030906001600160a01b03831690636352211e9060240160206040518083038186803b1580156104a057600080fd5b505afa1580156104b4573d6000803e3d6000fd5b505050506040513d601f19601f820116820180604052508101906104d891906110b2565b6001600160a01b0316146105205760405162461bcd60e51b815260206004820152600f60248201526e496e76616c69642073657474696e6760881b60448201526064016102bf565b6001600160a01b03851660009081526020818152604080832087845290915290205460019060ff16600581111561056757634e487b7160e01b600052602160045260246000fd5b146105b45760405162461bcd60e51b815260206004820152601960248201527f54686520746f6b656e206973206e6f742073656c6c696e67210000000000000060448201526064016102bf565b6001600160a01b038086166000908152600160208181526040808420898552825292839020835160608101855281549095168086529281015491850191909152600201549183019190915233141561064e5760405162461bcd60e51b815260206004820152600d60248201527f596f7520617265206f776e65720000000000000000000000000000000000000060448201526064016102bf565b80604001514211156106905760405162461bcd60e51b815260206004820152600b60248201526a125d09dcc813dd995c995960aa1b60448201526064016102bf565b80602001513410156106e45760405162461bcd60e51b815260206004820152601560248201527f7061796d656e74206973206e6f7420656e6f756768000000000000000000000060448201526064016102bf565b6106ef868633610cd5565b805160208201516040516001600160a01b039092169181156108fc0291906000818181858888f1935050505015801561072c573d6000803e3d6000fd5b50602081015133906108fc906107429034611230565b6040518115909202916000818181858888f1935050505015801561076a573d6000803e3d6000fd5b5061077786866000610e1b565b6001600160a01b03861660008181526001602081815260408084208a85528252808420805473ffffffffffffffffffffffffffffffffffffffff191681559283018490556002909201929092558382015190519081528792339290917f1f0715fbf5a1d211856630a1c03a1fe4f86e38332c04d0a66cdcf96ac138a374910160405180910390a4505050505050565b6001600160a01b0382166000908152602081815260408083208484529091528120548190819060019060ff16600581111561085157634e487b7160e01b600052602160045260246000fd5b1461089e5760405162461bcd60e51b815260206004820152600f60248201527f4e6f7420696e2073656c6c696e6721000000000000000000000000000000000060448201526064016102bf565b5050506001600160a01b0391821660009081526001602081815260408084209484529390529190208054918101546002909101549190921692565b6040516331a9108f60e11b81526004810182905282908290829030906001600160a01b03831690636352211e9060240160206040518083038186803b15801561092157600080fd5b505afa158015610935573d6000803e3d6000fd5b505050506040513d601f19601f8201168201806040525081019061095991906110b2565b6001600160a01b0316146109a15760405162461bcd60e51b815260206004820152600f60248201526e496e76616c69642073657474696e6760881b60448201526064016102bf565b6001600160a01b03851660009081526020818152604080832087845290915290205460019060ff1660058111156109e857634e487b7160e01b600052602160045260246000fd5b14610a355760405162461bcd60e51b815260206004820152601860248201527f43616e2774207265766f6b652066697865642073656c6c21000000000000000060448201526064016102bf565b6001600160a01b03808616600090815260016020818152604080842089855282529283902083516060810185528154909516808652928101549185019190915260020154918301919091523314610aba5760405162461bcd60e51b81526020600482015260096024820152682737ba1037bbb732b960b91b60448201526064016102bf565b610ac986868360000151610cd5565b610ad586866000610e1b565b6001600160a01b0380871660008181526001602081815260408084208b8552909152808320805473ffffffffffffffffffffffffffffffffffffffff1916815591820183905560029091018290558451905189949190911692917f512afe87f8c07838e85c1f3b9a2a6c39434870b9724890cafce167dceb887d3c91a4505050505050565b6001600160a01b03841660009081526020818152604080832086845290915281205460ff166005811115610b9e57634e487b7160e01b600052602160045260246000fd5b14610beb5760405162461bcd60e51b815260206004820152601160248201527f43616e27742053656c6c20416761696e2100000000000000000000000000000060448201526064016102bf565b6000610bf78585610e71565b604080516060810182526001600160a01b03838116825260208083018881528385018881528b8416600090815260018085528782208d8352909452959095209351845473ffffffffffffffffffffffffffffffffffffffff191693169290921783559051828201559151600290910155909150610c779086908690610e1b565b83816001600160a01b0316866001600160a01b03167fc573b8d5d034777fd8e8c8bcfe8f7b994b184939d226fac7581d54e572c82b4b8686604051610cc6929190918252602082015260400190565b60405180910390a45050505050565b6040516331a9108f60e11b81526004810183905283906000906001600160a01b03831690636352211e9060240160206040518083038186803b158015610d1a57600080fd5b505afa158015610d2e573d6000803e3d6000fd5b505050506040513d601f19601f82011682018060405250810190610d5291906110b2565b90506001600160a01b0381163014610dac5760405162461bcd60e51b815260206004820152601360248201527f4e6f7420696e2074686973206d61726b6574210000000000000000000000000060448201526064016102bf565b604051632142170760e11b81523060048201526001600160a01b038481166024830152604482018690528316906342842e0e90606401600060405180830381600087803b158015610dfc57600080fd5b505af1158015610e10573d6000803e3d6000fd5b505050505050505050565b6001600160a01b0383166000908152602081815260408083208584529091529020805482919060ff19166001836005811115610e6757634e487b7160e01b600052602160045260246000fd5b0217905550505050565b6040516331a9108f60e11b815260048101829052600090839082906001600160a01b03831690636352211e9060240160206040518083038186803b158015610eb857600080fd5b505afa158015610ecc573d6000803e3d6000fd5b505050506040513d601f19601f82011682018060405250810190610ef091906110b2565b90506001600160a01b038116610f485760405162461bcd60e51b815260206004820152600c60248201527f496e76616c6964206e667421000000000000000000000000000000000000000060448201526064016102bf565b6001600160a01b03811630146110aa576040517f081812fc0000000000000000000000000000000000000000000000000000000081526004810185905230906001600160a01b0384169063081812fc9060240160206040518083038186803b158015610fb357600080fd5b505afa158015610fc7573d6000803e3d6000fd5b505050506040513d601f19601f82011682018060405250810190610feb91906110b2565b6001600160a01b0316146110415760405162461bcd60e51b815260206004820152600b60248201527f756e617070726f7665642100000000000000000000000000000000000000000060448201526064016102bf565b604051632142170760e11b81526001600160a01b038281166004830152306024830152604482018690528316906342842e0e90606401600060405180830381600087803b15801561109157600080fd5b505af11580156110a5573d6000803e3d6000fd5b505050505b949350505050565b6000602082840312156110c3578081fd5b81516110ce81611253565b9392505050565b6000806000806000608086880312156110ec578081fd5b85356110f781611253565b9450602086013561110781611253565b935060408601359250606086013567ffffffffffffffff8082111561112a578283fd5b818801915088601f83011261113d578283fd5b81358181111561114b578384fd5b89602082850101111561115c578384fd5b9699959850939650602001949392505050565b60008060408385031215611181578182fd5b823561118c81611253565b946020939093013593505050565b6000806000606084860312156111ae578283fd5b83356111b981611253565b95602085013595506040909401359392505050565b600080600080608085870312156111e3578384fd5b84356111ee81611253565b966020860135965060408601359560600135945092505050565b602081016006831061122a57634e487b7160e01b600052602160045260246000fd5b91905290565b60008282101561124e57634e487b7160e01b81526011600452602481fd5b500390565b6001600160a01b038116811461126857600080fd5b5056fea2646970667358221220189403d519b00356ecc6f9ee076c9392b4902889bfeaa22c5a999ea1e6166f2464736f6c63430008040033",
  "linkReferences": {},
  "deployedLinkReferences": {}
}