{
  "_format": "hh-sol-artifact-1",
  "contractName": "Token",
  "sourceName": "contracts/Token.sol",
  "abi": [
    {
      "inputs": [],
      "stateMutability": "nonpayable",
      "type": "constructor"
    },
    {
      "anonymous": false,
      "inputs": [
        {
          "indexed": true,
          "internalType": "address",
          "name": "owner",
          "type": "address"
        },
        {
          "indexed": true,
          "internalType": "address",
          "name": "approved",
          "type": "address"
        },
        {
          "indexed": true,
          "internalType": "uint256",
          "name": "tokenId",
          "type": "uint256"
        }
      ],
      "name": "Approval",
      "type": "event"
    },
    {
      "anonymous": false,
      "inputs": [
        {
          "indexed": true,
          "internalType": "address",
          "name": "owner",
          "type": "address"
        },
        {
          "indexed": true,
          "internalType": "address",
          "name": "operator",
          "type": "address"
        },
        {
          "indexed": false,
          "internalType": "bool",
          "name": "approved",
          "type": "bool"
        }
      ],
      "name": "ApprovalForAll",
      "type": "event"
    },
    {
      "anonymous": false,
      "inputs": [
        {
          "indexed": true,
          "internalType": "address",
          "name": "previousOwner",
          "type": "address"
        },
        {
          "indexed": true,
          "internalType": "address",
          "name": "newOwner",
          "type": "address"
        }
      ],
      "name": "OwnershipTransferred",
      "type": "event"
    },
    {
      "anonymous": false,
      "inputs": [
        {
          "indexed": true,
          "internalType": "address",
          "name": "from",
          "type": "address"
        },
        {
          "indexed": true,
          "internalType": "address",
          "name": "to",
          "type": "address"
        },
        {
          "indexed": true,
          "internalType": "uint256",
          "name": "tokenId",
          "type": "uint256"
        }
      ],
      "name": "Transfer",
      "type": "event"
    },
    {
      "inputs": [
        {
          "internalType": "address",
          "name": "to",
          "type": "address"
        },
        {
          "internalType": "uint256",
          "name": "tokenId",
          "type": "uint256"
        }
      ],
      "name": "approve",
      "outputs": [],
      "stateMutability": "nonpayable",
      "type": "function"
    },
    {
      "inputs": [
        {
          "internalType": "address",
          "name": "owner",
          "type": "address"
        }
      ],
      "name": "balanceOf",
      "outputs": [
        {
          "internalType": "uint256",
          "name": "",
          "type": "uint256"
        }
      ],
      "stateMutability": "view",
      "type": "function"
    },
    {
      "inputs": [
        {
          "internalType": "uint256",
          "name": "tokenId",
          "type": "uint256"
        }
      ],
      "name": "burn",
      "outputs": [],
      "stateMutability": "nonpayable",
      "type": "function"
    },
    {
      "inputs": [
        {
          "internalType": "uint256",
          "name": "tokenId",
          "type": "uint256"
        }
      ],
      "name": "getApproved",
      "outputs": [
        {
          "internalType": "address",
          "name": "",
          "type": "address"
        }
      ],
      "stateMutability": "view",
      "type": "function"
    },
    {
      "inputs": [
        {
          "internalType": "address",
          "name": "owner",
          "type": "address"
        },
        {
          "internalType": "address",
          "name": "operator",
          "type": "address"
        }
      ],
      "name": "isApprovedForAll",
      "outputs": [
        {
          "internalType": "bool",
          "name": "",
          "type": "bool"
        }
      ],
      "stateMutability": "view",
      "type": "function"
    },
    {
      "inputs": [],
      "name": "name",
      "outputs": [
        {
          "internalType": "string",
          "name": "",
          "type": "string"
        }
      ],
      "stateMutability": "view",
      "type": "function"
    },
    {
      "inputs": [],
      "name": "owner",
      "outputs": [
        {
          "internalType": "address",
          "name": "",
          "type": "address"
        }
      ],
      "stateMutability": "view",
      "type": "function"
    },
    {
      "inputs": [
        {
          "internalType": "uint256",
          "name": "tokenId",
          "type": "uint256"
        }
      ],
      "name": "ownerOf",
      "outputs": [
        {
          "internalType": "address",
          "name": "",
          "type": "address"
        }
      ],
      "stateMutability": "view",
      "type": "function"
    },
    {
      "inputs": [],
      "name": "renounceOwnership",
      "outputs": [],
      "stateMutability": "nonpayable",
      "type": "function"
    },
    {
      "inputs": [
        {
          "internalType": "address",
          "name": "to",
          "type": "address"
        },
        {
          "internalType": "string",
          "name": "uri",
          "type": "string"
        }
      ],
      "name": "safeMint",
      "outputs": [
        {
          "internalType": "uint256",
          "name": "",
          "type": "uint256"
        }
      ],
      "stateMutability": "nonpayable",
      "type": "function"
    },
    {
      "inputs": [
        {
          "internalType": "address",
          "name": "from",
          "type": "address"
        },
        {
          "internalType": "address",
          "name": "to",
          "type": "address"
        },
        {
          "internalType": "uint256",
          "name": "tokenId",
          "type": "uint256"
        }
      ],
      "name": "safeTransferFrom",
      "outputs": [],
      "stateMutability": "nonpayable",
      "type": "function"
    },
    {
      "inputs": [
        {
          "internalType": "address",
          "name": "from",
          "type": "address"
        },
        {
          "internalType": "address",
          "name": "to",
          "type": "address"
        },
        {
          "internalType": "uint256",
          "name": "tokenId",
          "type": "uint256"
        },
        {
          "internalType": "bytes",
          "name": "data",
          "type": "bytes"
        }
      ],
      "name": "safeTransferFrom",
      "outputs": [],
      "stateMutability": "nonpayable",
      "type": "function"
    },
    {
      "inputs": [
        {
          "internalType": "address",
          "name": "operator",
          "type": "address"
        },
        {
          "internalType": "bool",
          "name": "approved",
          "type": "bool"
        }
      ],
      "name": "setApprovalForAll",
      "outputs": [],
      "stateMutability": "nonpayable",
      "type": "function"
    },
    {
      "inputs": [
        {
          "internalType": "bytes4",
          "name": "interfaceId",
          "type": "bytes4"
        }
      ],
      "name": "supportsInterface",
      "outputs": [
        {
          "internalType": "bool",
          "name": "",
          "type": "bool"
        }
      ],
      "stateMutability": "view",
      "type": "function"
    },
    {
      "inputs": [],
      "name": "symbol",
      "outputs": [
        {
          "internalType": "string",
          "name": "",
          "type": "string"
        }
      ],
      "stateMutability": "view",
      "type": "function"
    },
    {
      "inputs": [
        {
          "internalType": "uint256",
          "name": "tokenId",
          "type": "uint256"
        }
      ],
      "name": "tokenURI",
      "outputs": [
        {
          "internalType": "string",
          "name": "",
          "type": "string"
        }
      ],
      "stateMutability": "view",
      "type": "function"
    },
    {
      "inputs": [
        {
          "internalType": "address",
          "name": "from",
          "type": "address"
        },
        {
          "internalType": "address",
          "name": "to",
          "type": "address"
        },
        {
          "internalType": "uint256",
          "name": "tokenId",
          "type": "uint256"
        }
      ],
      "name": "transferFrom",
      "outputs": [],
      "stateMutability": "nonpayable",
      "type": "function"
    },
    {
      "inputs": [
        {
          "internalType": "address",
          "name": "newOwner",
          "type": "address"
        }
      ],
      "name": "transferOwnership",
      "outputs": [],
      "stateMutability": "nonpayable",
      "type": "function"
    }
  ],
  "bytecode": "0x60806040523480156200001157600080fd5b50604080518082018252600781526626bcaa37b5b2b760c91b6020808301918252835180850190945260038452624d544b60e81b9084015281519192916200005c91600091620000eb565b50805162000072906001906020840190620000eb565b5050506200008f620000896200009560201b60201c565b62000099565b620001ce565b3390565b600780546001600160a01b038381166001600160a01b0319831681179093556040519116919082907f8be0079c531659141344cd1fd0a4f28419497f9722a3daafe3b4186f6b6457e090600090a35050565b828054620000f99062000191565b90600052602060002090601f0160209004810192826200011d576000855562000168565b82601f106200013857805160ff191683800117855562000168565b8280016001018555821562000168579182015b82811115620001685782518255916020019190600101906200014b565b50620001769291506200017a565b5090565b5b808211156200017657600081556001016200017b565b600181811c90821680620001a657607f821691505b60208210811415620001c857634e487b7160e01b600052602260045260246000fd5b50919050565b611b1d80620001de6000396000f3fe608060405234801561001057600080fd5b50600436106101365760003560e01c8063715018a6116100b2578063b88d4fde11610081578063d204c45e11610066578063d204c45e1461027f578063e985e9c514610292578063f2fde38b146102ce57600080fd5b8063b88d4fde14610259578063c87b56dd1461026c57600080fd5b8063715018a6146102255780638da5cb5b1461022d57806395d89b411461023e578063a22cb4651461024657600080fd5b806323b872dd1161010957806342966c68116100ee57806342966c68146101de5780636352211e146101f157806370a082311461020457600080fd5b806323b872dd146101b857806342842e0e146101cb57600080fd5b806301ffc9a71461013b57806306fdde0314610163578063081812fc14610178578063095ea7b3146101a3575b600080fd5b61014e6101493660046118bc565b6102e1565b60405190151581526020015b60405180910390f35b61016b61037e565b60405161015a91906119a3565b61018b6101863660046118f4565b610410565b6040516001600160a01b03909116815260200161015a565b6101b66101b1366004611893565b610437565b005b6101b66101c6366004611746565b61056e565b6101b66101d9366004611746565b6105e7565b6101b66101ec3660046118f4565b610602565b61018b6101ff3660046118f4565b61067a565b6102176102123660046116fa565b6106df565b60405190815260200161015a565b6101b6610779565b6007546001600160a01b031661018b565b61016b61078d565b6101b66102543660046117fa565b61079c565b6101b6610267366004611781565b6107ab565b61016b61027a3660046118f4565b61082a565b61021761028d366004611834565b610835565b61014e6102a0366004611714565b6001600160a01b03918216600090815260056020908152604080832093909416825291909152205460ff1690565b6101b66102dc3660046116fa565b61086c565b60006001600160e01b031982167f80ac58cd00000000000000000000000000000000000000000000000000000000148061034457506001600160e01b031982167f5b5e139f00000000000000000000000000000000000000000000000000000000145b8061037857507f01ffc9a7000000000000000000000000000000000000000000000000000000006001600160e01b03198316145b92915050565b60606000805461038d90611a25565b80601f01602080910402602001604051908101604052809291908181526020018280546103b990611a25565b80156104065780601f106103db57610100808354040283529160200191610406565b820191906000526020600020905b8154815290600101906020018083116103e957829003601f168201915b5050505050905090565b600061041b826108f9565b506000908152600460205260409020546001600160a01b031690565b60006104428261067a565b9050806001600160a01b0316836001600160a01b031614156104d15760405162461bcd60e51b815260206004820152602160248201527f4552433732313a20617070726f76616c20746f2063757272656e74206f776e6560448201527f720000000000000000000000000000000000000000000000000000000000000060648201526084015b60405180910390fd5b336001600160a01b03821614806104ed57506104ed81336102a0565b61055f5760405162461bcd60e51b815260206004820152603e60248201527f4552433732313a20617070726f76652063616c6c6572206973206e6f7420746f60448201527f6b656e206f776e6572206e6f7220617070726f76656420666f7220616c6c000060648201526084016104c8565b610569838361095d565b505050565b610579335b826109cb565b6105dc5760405162461bcd60e51b815260206004820152602e60248201527f4552433732313a2063616c6c6572206973206e6f7420746f6b656e206f776e6560448201526d1c881b9bdc88185c1c1c9bdd995960921b60648201526084016104c8565b610569838383610a4a565b610569838383604051806020016040528060008152506107ab565b61060b33610573565b61066e5760405162461bcd60e51b815260206004820152602e60248201527f4552433732313a2063616c6c6572206973206e6f7420746f6b656e206f776e6560448201526d1c881b9bdc88185c1c1c9bdd995960921b60648201526084016104c8565b61067781610c17565b50565b6000818152600260205260408120546001600160a01b0316806103785760405162461bcd60e51b815260206004820152601860248201527f4552433732313a20696e76616c696420746f6b656e204944000000000000000060448201526064016104c8565b60006001600160a01b03821661075d5760405162461bcd60e51b815260206004820152602960248201527f4552433732313a2061646472657373207a65726f206973206e6f74206120766160448201527f6c6964206f776e6572000000000000000000000000000000000000000000000060648201526084016104c8565b506001600160a01b031660009081526003602052604090205490565b610781610c20565b61078b6000610c7a565b565b60606001805461038d90611a25565b6107a7338383610ccc565b5050565b6107b533836109cb565b6108185760405162461bcd60e51b815260206004820152602e60248201527f4552433732313a2063616c6c6572206973206e6f7420746f6b656e206f776e6560448201526d1c881b9bdc88185c1c1c9bdd995960921b60648201526084016104c8565b61082484848484610d9b565b50505050565b606061037882610e19565b60008061084160085490565b9050610851600880546001019055565b61085b8482610f22565b6108658184610f3c565b9392505050565b610874610c20565b6001600160a01b0381166108f05760405162461bcd60e51b815260206004820152602660248201527f4f776e61626c653a206e6577206f776e657220697320746865207a65726f206160448201527f646472657373000000000000000000000000000000000000000000000000000060648201526084016104c8565b61067781610c7a565b6000818152600260205260409020546001600160a01b03166106775760405162461bcd60e51b815260206004820152601860248201527f4552433732313a20696e76616c696420746f6b656e204944000000000000000060448201526064016104c8565b600081815260046020526040902080546001600160a01b0319166001600160a01b03841690811790915581906109928261067a565b6001600160a01b03167f8c5be1e5ebec7d5bd14f71427d1e84f3dd0314c0f7b2291e5b200ac8c7c3b92560405160405180910390a45050565b6000806109d78361067a565b9050806001600160a01b0316846001600160a01b03161480610a1e57506001600160a01b0380821660009081526005602090815260408083209388168352929052205460ff165b80610a425750836001600160a01b0316610a3784610410565b6001600160a01b0316145b949350505050565b826001600160a01b0316610a5d8261067a565b6001600160a01b031614610ad95760405162461bcd60e51b815260206004820152602560248201527f4552433732313a207472616e736665722066726f6d20696e636f72726563742060448201527f6f776e657200000000000000000000000000000000000000000000000000000060648201526084016104c8565b6001600160a01b038216610b545760405162461bcd60e51b8152602060048201526024808201527f4552433732313a207472616e7366657220746f20746865207a65726f2061646460448201527f726573730000000000000000000000000000000000000000000000000000000060648201526084016104c8565b610b5f60008261095d565b6001600160a01b0383166000908152600360205260408120805460019290610b889084906119e2565b90915550506001600160a01b0382166000908152600360205260408120805460019290610bb69084906119b6565b909155505060008181526002602052604080822080546001600160a01b0319166001600160a01b0386811691821790925591518493918716917fddf252ad1be2c89b69c2b068fc378daa952ba7f163c4a11628f55a4df523b3ef91a4505050565b61067781610fe5565b6007546001600160a01b0316331461078b5760405162461bcd60e51b815260206004820181905260248201527f4f776e61626c653a2063616c6c6572206973206e6f7420746865206f776e657260448201526064016104c8565b600780546001600160a01b038381166001600160a01b0319831681179093556040519116919082907f8be0079c531659141344cd1fd0a4f28419497f9722a3daafe3b4186f6b6457e090600090a35050565b816001600160a01b0316836001600160a01b03161415610d2e5760405162461bcd60e51b815260206004820152601960248201527f4552433732313a20617070726f766520746f2063616c6c65720000000000000060448201526064016104c8565b6001600160a01b03838116600081815260056020908152604080832094871680845294825291829020805460ff191686151590811790915591519182527f17307eab39ab6107e8899845ad3d59bd9653f200f220920489ca2b5937696c31910160405180910390a3505050565b610da6848484610a4a565b610db284848484611025565b6108245760405162461bcd60e51b815260206004820152603260248201527f4552433732313a207472616e7366657220746f206e6f6e20455243373231526560448201527131b2b4bb32b91034b6b83632b6b2b73a32b960711b60648201526084016104c8565b6060610e24826108f9565b60008281526006602052604081208054610e3d90611a25565b80601f0160208091040260200160405190810160405280929190818152602001828054610e6990611a25565b8015610eb65780601f10610e8b57610100808354040283529160200191610eb6565b820191906000526020600020905b815481529060010190602001808311610e9957829003601f168201915b505050505090506000610ed460408051602081019091526000815290565b9050805160001415610ee7575092915050565b815115610f19578082604051602001610f01929190611938565b60405160208183030381529060405292505050919050565b610a428461117d565b6107a78282604051806020016040528060008152506111f0565b6000828152600260205260409020546001600160a01b0316610fc65760405162461bcd60e51b815260206004820152602e60248201527f45524337323155524953746f726167653a2055524920736574206f66206e6f6e60448201527f6578697374656e7420746f6b656e00000000000000000000000000000000000060648201526084016104c8565b6000828152600660209081526040909120825161056992840190611599565b610fee8161126e565b6000818152600660205260409020805461100790611a25565b1590506106775760008181526006602052604081206106779161161d565b60006001600160a01b0384163b1561117257604051630a85bd0160e11b81526001600160a01b0385169063150b7a0290611069903390899088908890600401611967565b602060405180830381600087803b15801561108357600080fd5b505af19250505080156110b3575060408051601f3d908101601f191682019092526110b0918101906118d8565b60015b611158573d8080156110e1576040519150601f19603f3d011682016040523d82523d6000602084013e6110e6565b606091505b5080516111505760405162461bcd60e51b815260206004820152603260248201527f4552433732313a207472616e7366657220746f206e6f6e20455243373231526560448201527131b2b4bb32b91034b6b83632b6b2b73a32b960711b60648201526084016104c8565b805181602001fd5b6001600160e01b031916630a85bd0160e11b149050610a42565b506001949350505050565b6060611188826108f9565b600061119f60408051602081019091526000815290565b905060008151116111bf5760405180602001604052806000815250610865565b806111c984611309565b6040516020016111da929190611938565b6040516020818303038152906040529392505050565b6111fa8383611457565b6112076000848484611025565b6105695760405162461bcd60e51b815260206004820152603260248201527f4552433732313a207472616e7366657220746f206e6f6e20455243373231526560448201527131b2b4bb32b91034b6b83632b6b2b73a32b960711b60648201526084016104c8565b60006112798261067a565b905061128660008361095d565b6001600160a01b03811660009081526003602052604081208054600192906112af9084906119e2565b909155505060008281526002602052604080822080546001600160a01b0319169055518391906001600160a01b038416907fddf252ad1be2c89b69c2b068fc378daa952ba7f163c4a11628f55a4df523b3ef908390a45050565b60608161134957505060408051808201909152600181527f3000000000000000000000000000000000000000000000000000000000000000602082015290565b8160005b8115611373578061135d81611a60565b915061136c9050600a836119ce565b915061134d565b60008167ffffffffffffffff81111561139c57634e487b7160e01b600052604160045260246000fd5b6040519080825280601f01601f1916602001820160405280156113c6576020820181803683370190505b5090505b8415610a42576113db6001836119e2565b91506113e8600a86611a7b565b6113f39060306119b6565b60f81b81838151811061141657634e487b7160e01b600052603260045260246000fd5b60200101907effffffffffffffffffffffffffffffffffffffffffffffffffffffffffffff1916908160001a905350611450600a866119ce565b94506113ca565b6001600160a01b0382166114ad5760405162461bcd60e51b815260206004820181905260248201527f4552433732313a206d696e7420746f20746865207a65726f206164647265737360448201526064016104c8565b6000818152600260205260409020546001600160a01b0316156115125760405162461bcd60e51b815260206004820152601c60248201527f4552433732313a20746f6b656e20616c7265616479206d696e7465640000000060448201526064016104c8565b6001600160a01b038216600090815260036020526040812080546001929061153b9084906119b6565b909155505060008181526002602052604080822080546001600160a01b0319166001600160a01b03861690811790915590518392907fddf252ad1be2c89b69c2b068fc378daa952ba7f163c4a11628f55a4df523b3ef908290a45050565b8280546115a590611a25565b90600052602060002090601f0160209004810192826115c7576000855561160d565b82601f106115e057805160ff191683800117855561160d565b8280016001018555821561160d579182015b8281111561160d5782518255916020019190600101906115f2565b50611619929150611653565b5090565b50805461162990611a25565b6000825580601f10611639575050565b601f01602090049060005260206000209081019061067791905b5b808211156116195760008155600101611654565b600067ffffffffffffffff8084111561168357611683611abb565b604051601f8501601f19908116603f011681019082821181831017156116ab576116ab611abb565b816040528093508581528686860111156116c457600080fd5b858560208301376000602087830101525050509392505050565b80356001600160a01b03811681146116f557600080fd5b919050565b60006020828403121561170b578081fd5b610865826116de565b60008060408385031215611726578081fd5b61172f836116de565b915061173d602084016116de565b90509250929050565b60008060006060848603121561175a578081fd5b611763846116de565b9250611771602085016116de565b9150604084013590509250925092565b60008060008060808587031215611796578081fd5b61179f856116de565b93506117ad602086016116de565b925060408501359150606085013567ffffffffffffffff8111156117cf578182fd5b8501601f810187136117df578182fd5b6117ee87823560208401611668565b91505092959194509250565b6000806040838503121561180c578182fd5b611815836116de565b915060208301358015158114611829578182fd5b809150509250929050565b60008060408385031215611846578182fd5b61184f836116de565b9150602083013567ffffffffffffffff81111561186a578182fd5b8301601f8101851361187a578182fd5b61188985823560208401611668565b9150509250929050565b600080604083850312156118a5578182fd5b6118ae836116de565b946020939093013593505050565b6000602082840312156118cd578081fd5b813561086581611ad1565b6000602082840312156118e9578081fd5b815161086581611ad1565b600060208284031215611905578081fd5b5035919050565b600081518084526119248160208601602086016119f9565b601f01601f19169290920160200192915050565b6000835161194a8184602088016119f9565b83519083019061195e8183602088016119f9565b01949350505050565b60006001600160a01b03808716835280861660208401525083604083015260806060830152611999608083018461190c565b9695505050505050565b602081526000610865602083018461190c565b600082198211156119c9576119c9611a8f565b500190565b6000826119dd576119dd611aa5565b500490565b6000828210156119f4576119f4611a8f565b500390565b60005b83811015611a145781810151838201526020016119fc565b838111156108245750506000910152565b600181811c90821680611a3957607f821691505b60208210811415611a5a57634e487b7160e01b600052602260045260246000fd5b50919050565b6000600019821415611a7457611a74611a8f565b5060010190565b600082611a8a57611a8a611aa5565b500690565b634e487b7160e01b600052601160045260246000fd5b634e487b7160e01b600052601260045260246000fd5b634e487b7160e01b600052604160045260246000fd5b6001600160e01b03198116811461067757600080fdfea2646970667358221220c7c0bbd6622e0b5415062f0ea2bae44d2d3887c5833982e7a8984258b83d0b0464736f6c63430008040033",
  "linkReferences": {},
  "deployedLinkReferences": {}
}