{
  "_format": "hh-sol-artifact-1",
  "contractName": "EnglishAuction",
  "sourceName": "contracts/EnglishAuction.sol",
  "abi": [
    {
      "anonymous": false,
      "inputs": [
        {
          "indexed": true,
          "internalType": "address",
          "name": "nftAddr",
          "type": "address"
        },
        {
          "indexed": true,
          "internalType": "address",
          "name": "bider",
          "type": "address"
        },
        {
          "indexed": true,
          "internalType": "uint256",
          "name": "tokenId",
          "type": "uint256"
        },
        {
          "indexed": false,
          "internalType": "uint256",
          "name": "nowPrice",
          "type": "uint256"
        }
      ],
      "name": "EnglishAuctionBid",
      "type": "event"
    },
    {
      "anonymous": false,
      "inputs": [
        {
          "indexed": true,
          "internalType": "address",
          "name": "nftAddr",
          "type": "address"
        },
        {
          "indexed": true,
          "internalType": "address",
          "name": "buyer",
          "type": "address"
        },
        {
          "indexed": true,
          "internalType": "uint256",
          "name": "tokenId",
          "type": "uint256"
        },
        {
          "indexed": false,
          "internalType": "uint256",
          "name": "price",
          "type": "uint256"
        }
      ],
      "name": "EnglishAuctionEnd",
      "type": "event"
    },
    {
      "anonymous": false,
      "inputs": [
        {
          "indexed": true,
          "internalType": "address",
          "name": "nftAddr",
          "type": "address"
        },
        {
          "indexed": true,
          "internalType": "address",
          "name": "seller",
          "type": "address"
        },
        {
          "indexed": true,
          "internalType": "uint256",
          "name": "tokenId",
          "type": "uint256"
        }
      ],
      "name": "EnglishAuctionRevoke",
      "type": "event"
    },
    {
      "anonymous": false,
      "inputs": [
        {
          "indexed": true,
          "internalType": "address",
          "name": "nftAddr",
          "type": "address"
        },
        {
          "indexed": true,
          "internalType": "address",
          "name": "seller",
          "type": "address"
        },
        {
          "indexed": true,
          "internalType": "uint256",
          "name": "tokenId",
          "type": "uint256"
        },
        {
          "indexed": false,
          "internalType": "uint256",
          "name": "reservePrice",
          "type": "uint256"
        },
        {
          "indexed": false,
          "internalType": "uint256",
          "name": "minimumAddPrice",
          "type": "uint256"
        },
        {
          "indexed": false,
          "internalType": "uint256",
          "name": "endTime",
          "type": "uint256"
        }
      ],
      "name": "EnglishAuctionStart",
      "type": "event"
    },
    {
      "anonymous": false,
      "inputs": [
        {
          "indexed": true,
          "internalType": "address",
          "name": "nftAddr",
          "type": "address"
        },
        {
          "indexed": true,
          "internalType": "address",
          "name": "bider",
          "type": "address"
        },
        {
          "indexed": true,
          "internalType": "uint256",
          "name": "tokenId",
          "type": "uint256"
        },
        {
          "indexed": false,
          "internalType": "uint256",
          "name": "balance",
          "type": "uint256"
        }
      ],
      "name": "EnglishAuctionWithdraw",
      "type": "event"
    },
    {
      "inputs": [
        {
          "internalType": "address",
          "name": "nftAddr",
          "type": "address"
        },
        {
          "internalType": "uint256",
          "name": "tokenId",
          "type": "uint256"
        }
      ],
      "name": "enAuctionBid",
      "outputs": [],
      "stateMutability": "payable",
      "type": "function"
    },
    {
      "inputs": [
        {
          "internalType": "address",
          "name": "nftAddr",
          "type": "address"
        },
        {
          "internalType": "uint256",
          "name": "tokenId",
          "type": "uint256"
        }
      ],
      "name": "enAuctionEnd",
      "outputs": [],
      "stateMutability": "nonpayable",
      "type": "function"
    },
    {
      "inputs": [
        {
          "internalType": "address",
          "name": "nftAddr",
          "type": "address"
        },
        {
          "internalType": "uint256",
          "name": "tokenId",
          "type": "uint256"
        }
      ],
      "name": "enAuctionRevoke",
      "outputs": [],
      "stateMutability": "nonpayable",
      "type": "function"
    },
    {
      "inputs": [
        {
          "internalType": "address",
          "name": "nftAddr",
          "type": "address"
        },
        {
          "internalType": "uint256",
          "name": "tokenId",
          "type": "uint256"
        },
        {
          "internalType": "uint256",
          "name": "reservePrice",
          "type": "uint256"
        },
        {
          "internalType": "uint256",
          "name": "minimumAddPrice",
          "type": "uint256"
        },
        {
          "internalType": "uint256",
          "name": "endTime",
          "type": "uint256"
        }
      ],
      "name": "enAuctionStart",
      "outputs": [],
      "stateMutability": "nonpayable",
      "type": "function"
    },
    {
      "inputs": [
        {
          "internalType": "address",
          "name": "nftAddr",
          "type": "address"
        },
        {
          "internalType": "uint256",
          "name": "tokenId",
          "type": "uint256"
        }
      ],
      "name": "enAuctionWithdraw",
      "outputs": [],
      "stateMutability": "nonpayable",
      "type": "function"
    },
    {
      "inputs": [
        {
          "internalType": "address",
          "name": "nftAddr",
          "type": "address"
        },
        {
          "internalType": "uint256",
          "name": "tokenId",
          "type": "uint256"
        }
      ],
      "name": "getEnAuction",
      "outputs": [
        {
          "internalType": "address",
          "name": "owner",
          "type": "address"
        },
        {
          "internalType": "uint256",
          "name": "reservePrice",
          "type": "uint256"
        },
        {
          "internalType": "uint256",
          "name": "minimumAddPrice",
          "type": "uint256"
        },
        {
          "internalType": "uint256",
          "name": "startTime",
          "type": "uint256"
        },
        {
          "internalType": "uint256",
          "name": "endTime",
          "type": "uint256"
        },
        {
          "internalType": "address[]",
          "name": "bidList",
          "type": "address[]"
        },
        {
          "internalType": "uint256[]",
          "name": "bidPriceList",
          "type": "uint256[]"
        },
        {
          "internalType": "address",
          "name": "highestBid",
          "type": "address"
        },
        {
          "internalType": "uint256",
          "name": "highestPrice",
          "type": "uint256"
        },
        {
          "internalType": "uint256",
          "name": "nowPirce",
          "type": "uint256"
        }
      ],
      "stateMutability": "view",
      "type": "function"
    },
    {
      "inputs": [
        {
          "internalType": "address",
          "name": "nftAddr",
          "type": "address"
        },
        {
          "internalType": "uint256",
          "name": "tokenId",
          "type": "uint256"
        }
      ],
      "name": "getStatus",
      "outputs": [
        {
          "internalType": "enum MarketState.Status",
          "name": "",
          "type": "uint8"
        }
      ],
      "stateMutability": "view",
      "type": "function"
    },
    {
      "inputs": [
        {
          "internalType": "address",
          "name": "operator",
          "type": "address"
        },
        {
          "internalType": "address",
          "name": "from",
          "type": "address"
        },
        {
          "internalType": "uint256",
          "name": "tokenId",
          "type": "uint256"
        },
        {
          "internalType": "bytes",
          "name": "data",
          "type": "bytes"
        }
      ],
      "name": "onERC721Received",
      "outputs": [
        {
          "internalType": "bytes4",
          "name": "",
          "type": "bytes4"
        }
      ],
      "stateMutability": "nonpayable",
      "type": "function"
    }
  ],
  "bytecode": "0x608060405234801561001057600080fd5b50611c79806100206000396000f3fe60806040526004361061007a5760003560e01c80633dfee2df1161004e5780633dfee2df1461015c5780634ce0ef951461017c5780637e3bcab6146101cd578063aa6513571461020357600080fd5b8062f4cebc1461007f578063058f9f03146100a1578063150b7a02146100c1578063383aab241461013c575b600080fd5b34801561008b57600080fd5b5061009f61009a366004611a64565b610216565b005b3480156100ad57600080fd5b5061009f6100bc366004611a64565b6105f1565b3480156100cd57600080fd5b506101066100dc3660046119ca565b7f150b7a020000000000000000000000000000000000000000000000000000000095945050505050565b6040517fffffffff0000000000000000000000000000000000000000000000000000000090911681526020015b60405180910390f35b34801561014857600080fd5b5061009f610157366004611a64565b610b36565b34801561016857600080fd5b5061009f610177366004611a8f565b610d52565b34801561018857600080fd5b506101c0610197366004611a64565b6001600160a01b0391909116600090815260208181526040808320938352929052205460ff1690565b6040516101339190611bbd565b3480156101d957600080fd5b506101ed6101e8366004611a64565b610f29565b6040516101339a99989796959493929190611b0c565b61009f610211366004611a64565b6111da565b6040516331a9108f60e11b81526004810182905282908290829030906001600160a01b03831690636352211e9060240160206040518083038186803b15801561025e57600080fd5b505afa158015610272573d6000803e3d6000fd5b505050506040513d601f19601f8201168201806040525081019061029691906119a7565b6001600160a01b0316146102e35760405162461bcd60e51b815260206004820152600f60248201526e496e76616c69642073657474696e6760881b60448201526064015b60405180910390fd5b6001600160a01b03851660009081526020818152604080832087845290915290205460039060ff16600581111561032a57634e487b7160e01b600052602160045260246000fd5b1461036d5760405162461bcd60e51b81526020600482015260136024820152724e6f7420696e207468652061756374696f6e2160681b60448201526064016102da565b6001600160a01b0380861660009081526001602090815260408083208884529091529020805490911633146103e45760405162461bcd60e51b815260206004820152600960248201527f4e6f74206f776e6572000000000000000000000000000000000000000000000060448201526064016102da565b60005b600782015481101561051357600082600501600084600701848154811061041e57634e487b7160e01b600052603260045260246000fd5b60009182526020808320909101546001600160a01b0316835282019290925260400190205411156105015781600701818154811061046c57634e487b7160e01b600052603260045260246000fd5b60009182526020822001546007840180546001600160a01b03909216926108fc92600587019290869081106104b157634e487b7160e01b600052603260045260246000fd5b60009182526020808320909101546001600160a01b03168352820192909252604090810182205490518115909302929091818181858888f193505050501580156104ff573d6000803e3d6000fd5b505b8061050b81611bfd565b9150506103e7565b50805461052c90879087906001600160a01b0316611590565b610538868660006116d6565b6001600160a01b0386166000908152600160208181526040808420898552909152822080546001600160a01b031916815590810182905560028101829055600381018290556004810182905590610592600783018261196d565b506008810180546001600160a01b031916905560006009909101819055815460405187926001600160a01b03928316928a16917f29cbf5ccd7e5f77224023a73e9af3ef25afc795d220cf559442f4e83c6539e399190a4505050505050565b6040516331a9108f60e11b81526004810182905282908290829030906001600160a01b03831690636352211e9060240160206040518083038186803b15801561063957600080fd5b505afa15801561064d573d6000803e3d6000fd5b505050506040513d601f19601f8201168201806040525081019061067191906119a7565b6001600160a01b0316146106b95760405162461bcd60e51b815260206004820152600f60248201526e496e76616c69642073657474696e6760881b60448201526064016102da565b6001600160a01b03851660009081526020818152604080832087845290915290205460039060ff16600581111561070057634e487b7160e01b600052602160045260246000fd5b146107435760405162461bcd60e51b81526020600482015260136024820152724e6f7420696e207468652061756374696f6e2160681b60448201526064016102da565b6001600160a01b03851660009081526001602090815260408083208784529091529020600481015442116107b95760405162461bcd60e51b815260206004820152601760248201527f41756374696f6e206973206e6f742066696e697368656400000000000000000060448201526064016102da565b60088101546001600160a01b03166108b75780546107e390879087906001600160a01b0316611590565b6107ef868660006116d6565b6001600160a01b0386166000908152600160208181526040808420898552909152822080546001600160a01b031916815590810182905560028101829055600381018290556004810182905590610849600783018261196d565b50600881810180546001600160a01b031916905560006009928301558201549082015460405190815286916001600160a01b0390811691908916907f6b7182182cd51cc0c1c40a815062940d1a1453d83e46ebde38e349183c86d0d39060200160405180910390a450610b2f565b60088101546108d290879087906001600160a01b0316611590565b805460098201546040516001600160a01b039092169181156108fc0291906000818181858888f1935050505015801561090f573d6000803e3d6000fd5b5060088101546001600160a01b0316600090815260058201602052604081208190555b6007820154811015610a5e57600082600501600084600701848154811061096957634e487b7160e01b600052603260045260246000fd5b60009182526020808320909101546001600160a01b031683528201929092526040019020541115610a4c578160070181815481106109b757634e487b7160e01b600052603260045260246000fd5b60009182526020822001546007840180546001600160a01b03909216926108fc92600587019290869081106109fc57634e487b7160e01b600052603260045260246000fd5b60009182526020808320909101546001600160a01b03168352820192909252604090810182205490518115909302929091818181858888f19350505050158015610a4a573d6000803e3d6000fd5b505b80610a5681611bfd565b915050610932565b50610a6b868660006116d6565b6001600160a01b0386166000908152600160208181526040808420898552909152822080546001600160a01b031916815590810182905560028101829055600381018290556004810182905590610ac5600783018261196d565b50600881810180546001600160a01b031916905560006009928301558201549082015460405190815286916001600160a01b0390811691908916907f6b7182182cd51cc0c1c40a815062940d1a1453d83e46ebde38e349183c86d0d39060200160405180910390a4505b5050505050565b6001600160a01b03821660009081526020818152604080832084845290915290205460039060ff166005811115610b7d57634e487b7160e01b600052602160045260246000fd5b14610bc05760405162461bcd60e51b81526020600482015260136024820152724e6f7420696e207468652061756374696f6e2160681b60448201526064016102da565b6001600160a01b03828116600090815260016020908152604080832085845290915290206008810154909116331415610c615760405162461bcd60e51b815260206004820152602960248201527f796f7520617265206869676865737442696465722c206e6f7420616c6c6f772060448201527f776974686472617721000000000000000000000000000000000000000000000060648201526084016102da565b33600090815260058201602052604090205480610cc05760405162461bcd60e51b815260206004820152600b60248201527f4e6f2062616c616e63652100000000000000000000000000000000000000000060448201526064016102da565b3360008181526005840160205260408082208290555183156108fc0291849190818181858888f19350505050158015610cfd573d6000803e3d6000fd5b5082336001600160a01b0316856001600160a01b03167f4c49ccebe003ca3e97627a677854c98b0e321b64b376c5c13f5aa854f7c2e40084604051610d4491815260200190565b60405180910390a450505050565b6001600160a01b03851660009081526020818152604080832087845290915281205460ff166005811115610d9657634e487b7160e01b600052602160045260246000fd5b14610de35760405162461bcd60e51b815260206004820152601160248201527f43616e27742053656c6c20416761696e2100000000000000000000000000000060448201526064016102da565b42811015610e595760405162461bcd60e51b815260206004820152602160248201527f656e6454696d65206973206e656564656420616674657220737461727454696d60448201527f650000000000000000000000000000000000000000000000000000000000000060648201526084016102da565b6000610e65868661172c565b6001600160a01b0387811660009081526001602081815260408084208b855290915290912080546001600160a01b031916928416929092178255810186905560028101859055426003808301919091556004820185905591925090610ecd90889088906116d6565b604080518681526020810186905290810184905286906001600160a01b0380851691908a16907f462478bf97a6a2df9c7cfdfbc8273ac68d7ecaff617753beec272fd6f96574299060600160405180910390a450505050505050565b6000808080806060808280806003610f658d8d6001600160a01b0391909116600090815260208181526040808320938352929052205460ff1690565b6005811115610f8457634e487b7160e01b600052602160045260246000fd5b14610fc75760405162461bcd60e51b81526020600482015260136024820152724e6f7420696e207468652061756374696f6e2160681b60448201526064016102da565b6000600160008e6001600160a01b03166001600160a01b0316815260200190815260200160002060008d815260200190815260200160002090508060000160009054906101000a90046001600160a01b03169a50806001015499508060020154985080600301549750806004015496508060080160009054906101000a90046001600160a01b0316935080600901549250806007018054806020026020016040519081016040528092919081815260200182805480156110b057602002820191906000526020600020905b81546001600160a01b03168152600190910190602001808311611092575b50505050509550855167ffffffffffffffff8111156110df57634e487b7160e01b600052604160045260246000fd5b604051908082528060200260200182016040528015611108578160200160208202803683370190505b50945060005b86518110156111a35781600501600088838151811061113d57634e487b7160e01b600052603260045260246000fd5b60200260200101516001600160a01b03166001600160a01b031681526020019081526020016000205486828151811061118657634e487b7160e01b600052603260045260246000fd5b60209081029190910101528061119b81611bfd565b91505061110e565b5060088101546001600160a01b03166111c257806001015491506111ca565b806009015491505b509295989b9194979a5092959850565b6040516331a9108f60e11b81526004810182905282908290829030906001600160a01b03831690636352211e9060240160206040518083038186803b15801561122257600080fd5b505afa158015611236573d6000803e3d6000fd5b505050506040513d601f19601f8201168201806040525081019061125a91906119a7565b6001600160a01b0316146112a25760405162461bcd60e51b815260206004820152600f60248201526e496e76616c69642073657474696e6760881b60448201526064016102da565b6001600160a01b03851660009081526020818152604080832087845290915290205460039060ff1660058111156112e957634e487b7160e01b600052602160045260246000fd5b1461132c5760405162461bcd60e51b81526020600482015260136024820152724e6f7420696e207468652061756374696f6e2160681b60448201526064016102da565b6001600160a01b038086166000908152600160209081526040808320888452909152902080549091163314156113a45760405162461bcd60e51b815260206004820152600d60248201527f596f7520617265206f776e65720000000000000000000000000000000000000060448201526064016102da565b80600401544211156113f85760405162461bcd60e51b815260206004820152600b60248201527f49742773204f766572656400000000000000000000000000000000000000000060448201526064016102da565b60006114048787610f29565b995050505050505050505060008260020154826114219190611be5565b33600090815260058501602052604090205490915081906114429034611be5565b10156114905760405162461bcd60e51b815260206004820152601660248201527f7061796d656e74206973206e6f7420656e6f756768210000000000000000000060448201526064016102da565b33600090815260068401602052604090205460ff166114d157600783018054600181018255600091825260209091200180546001600160a01b031916331790555b3360009081526006840160209081526040808320805460ff191660011790556005860190915281208054349290611509908490611be5565b90915550506008830180546001600160a01b03191633908117909155600081815260058501602052604090819020546009860181905590518992916001600160a01b038c16917f6b0461e6e6260027d80a3a00f5c5baa824d43519c673decd30d172099072af449161157e9190815260200190565b60405180910390a45050505050505050565b6040516331a9108f60e11b81526004810183905283906000906001600160a01b03831690636352211e9060240160206040518083038186803b1580156115d557600080fd5b505afa1580156115e9573d6000803e3d6000fd5b505050506040513d601f19601f8201168201806040525081019061160d91906119a7565b90506001600160a01b03811630146116675760405162461bcd60e51b815260206004820152601360248201527f4e6f7420696e2074686973206d61726b6574210000000000000000000000000060448201526064016102da565b604051632142170760e11b81523060048201526001600160a01b038481166024830152604482018690528316906342842e0e90606401600060405180830381600087803b1580156116b757600080fd5b505af11580156116cb573d6000803e3d6000fd5b505050505050505050565b6001600160a01b0383166000908152602081815260408083208584529091529020805482919060ff1916600183600581111561172257634e487b7160e01b600052602160045260246000fd5b0217905550505050565b6040516331a9108f60e11b815260048101829052600090839082906001600160a01b03831690636352211e9060240160206040518083038186803b15801561177357600080fd5b505afa158015611787573d6000803e3d6000fd5b505050506040513d601f19601f820116820180604052508101906117ab91906119a7565b90506001600160a01b0381166118035760405162461bcd60e51b815260206004820152600c60248201527f496e76616c6964206e667421000000000000000000000000000000000000000060448201526064016102da565b6001600160a01b0381163014611965576040517f081812fc0000000000000000000000000000000000000000000000000000000081526004810185905230906001600160a01b0384169063081812fc9060240160206040518083038186803b15801561186e57600080fd5b505afa158015611882573d6000803e3d6000fd5b505050506040513d601f19601f820116820180604052508101906118a691906119a7565b6001600160a01b0316146118fc5760405162461bcd60e51b815260206004820152600b60248201527f756e617070726f7665642100000000000000000000000000000000000000000060448201526064016102da565b604051632142170760e11b81526001600160a01b038281166004830152306024830152604482018690528316906342842e0e90606401600060405180830381600087803b15801561194c57600080fd5b505af1158015611960573d6000803e3d6000fd5b505050505b949350505050565b508054600082559060005260206000209081019061198b919061198e565b50565b5b808211156119a3576000815560010161198f565b5090565b6000602082840312156119b8578081fd5b81516119c381611c2e565b9392505050565b6000806000806000608086880312156119e1578081fd5b85356119ec81611c2e565b945060208601356119fc81611c2e565b935060408601359250606086013567ffffffffffffffff80821115611a1f578283fd5b818801915088601f830112611a32578283fd5b813581811115611a40578384fd5b896020828501011115611a51578384fd5b9699959850939650602001949392505050565b60008060408385031215611a76578182fd5b8235611a8181611c2e565b946020939093013593505050565b600080600080600060a08688031215611aa6578081fd5b8535611ab181611c2e565b97602087013597506040870135966060810135965060800135945092505050565b6000815180845260208085019450808401835b83811015611b0157815187529582019590820190600101611ae5565b509495945050505050565b60006101408083016001600160a01b03808f16855260208e818701528d60408701528c60608701528b60808701528360a08701528293508a5180845261016087019450818c019350855b81811015611b74578451841686529482019493820193600101611b56565b505050505082810360c0840152611b8b8188611ad2565b915050611ba360e08301866001600160a01b03169052565b610100820193909352610120015298975050505050505050565b6020810160068310611bdf57634e487b7160e01b600052602160045260246000fd5b91905290565b60008219821115611bf857611bf8611c18565b500190565b6000600019821415611c1157611c11611c18565b5060010190565b634e487b7160e01b600052601160045260246000fd5b6001600160a01b038116811461198b57600080fdfea2646970667358221220b87e50033939f310b457dd8b6cfd1df5a3ade0ad5658ba2b55cee2a40356d67664736f6c63430008040033",
  "linkReferences": {},
  "deployedLinkReferences": {}
}