{
  "_format": "hh-sol-artifact-1",
  "contractName": "Market",
  "sourceName": "contracts/Market.sol",
  "abi": [
    {
      "anonymous": false,
      "inputs": [
        {
          "indexed": true,
          "internalType": "address",
          "name": "nftAddr",
          "type": "address"
        },
        {
          "indexed": true,
          "internalType": "address",
          "name": "buyer",
          "type": "address"
        },
        {
          "indexed": true,
          "internalType": "uint256",
          "name": "tokenId",
          "type": "uint256"
        },
        {
          "indexed": false,
          "internalType": "uint256",
          "name": "price",
          "type": "uint256"
        }
      ],
      "name": "DutchAuctionBid",
      "type": "event"
    },
    {
      "anonymous": false,
      "inputs": [
        {
          "indexed": true,
          "internalType": "address",
          "name": "nftAddr",
          "type": "address"
        },
        {
          "indexed": true,
          "internalType": "address",
          "name": "seller",
          "type": "address"
        },
        {
          "indexed": true,
          "internalType": "uint256",
          "name": "tokenId",
          "type": "uint256"
        }
      ],
      "name": "DutchAuctionRevoke",
      "type": "event"
    },
    {
      "anonymous": false,
      "inputs": [
        {
          "indexed": true,
          "internalType": "address",
          "name": "nftAddr",
          "type": "address"
        },
        {
          "indexed": true,
          "internalType": "address",
          "name": "seller",
          "type": "address"
        },
        {
          "indexed": true,
          "internalType": "uint256",
          "name": "tokenId",
          "type": "uint256"
        },
        {
          "indexed": false,
          "internalType": "uint256",
          "name": "price",
          "type": "uint256"
        },
        {
          "indexed": false,
          "internalType": "uint256",
          "name": "floorPrice",
          "type": "uint256"
        },
        {
          "indexed": false,
          "internalType": "uint256",
          "name": "endTime",
          "type": "uint256"
        }
      ],
      "name": "DutchAuctionStart",
      "type": "event"
    },
    {
      "anonymous": false,
      "inputs": [
        {
          "indexed": true,
          "internalType": "address",
          "name": "nftAddr",
          "type": "address"
        },
        {
          "indexed": true,
          "internalType": "address",
          "name": "bider",
          "type": "address"
        },
        {
          "indexed": true,
          "internalType": "uint256",
          "name": "tokenId",
          "type": "uint256"
        },
        {
          "indexed": false,
          "internalType": "uint256",
          "name": "nowPrice",
          "type": "uint256"
        }
      ],
      "name": "EnglishAuctionBid",
      "type": "event"
    },
    {
      "anonymous": false,
      "inputs": [
        {
          "indexed": true,
          "internalType": "address",
          "name": "nftAddr",
          "type": "address"
        },
        {
          "indexed": true,
          "internalType": "address",
          "name": "buyer",
          "type": "address"
        },
        {
          "indexed": true,
          "internalType": "uint256",
          "name": "tokenId",
          "type": "uint256"
        },
        {
          "indexed": false,
          "internalType": "uint256",
          "name": "price",
          "type": "uint256"
        }
      ],
      "name": "EnglishAuctionEnd",
      "type": "event"
    },
    {
      "anonymous": false,
      "inputs": [
        {
          "indexed": true,
          "internalType": "address",
          "name": "nftAddr",
          "type": "address"
        },
        {
          "indexed": true,
          "internalType": "address",
          "name": "seller",
          "type": "address"
        },
        {
          "indexed": true,
          "internalType": "uint256",
          "name": "tokenId",
          "type": "uint256"
        }
      ],
      "name": "EnglishAuctionRevoke",
      "type": "event"
    },
    {
      "anonymous": false,
      "inputs": [
        {
          "indexed": true,
          "internalType": "address",
          "name": "nftAddr",
          "type": "address"
        },
        {
          "indexed": true,
          "internalType": "address",
          "name": "seller",
          "type": "address"
        },
        {
          "indexed": true,
          "internalType": "uint256",
          "name": "tokenId",
          "type": "uint256"
        },
        {
          "indexed": false,
          "internalType": "uint256",
          "name": "reservePrice",
          "type": "uint256"
        },
        {
          "indexed": false,
          "internalType": "uint256",
          "name": "minimumAddPrice",
          "type": "uint256"
        },
        {
          "indexed": false,
          "internalType": "uint256",
          "name": "endTime",
          "type": "uint256"
        }
      ],
      "name": "EnglishAuctionStart",
      "type": "event"
    },
    {
      "anonymous": false,
      "inputs": [
        {
          "indexed": true,
          "internalType": "address",
          "name": "nftAddr",
          "type": "address"
        },
        {
          "indexed": true,
          "internalType": "address",
          "name": "bider",
          "type": "address"
        },
        {
          "indexed": true,
          "internalType": "uint256",
          "name": "tokenId",
          "type": "uint256"
        },
        {
          "indexed": false,
          "internalType": "uint256",
          "name": "balance",
          "type": "uint256"
        }
      ],
      "name": "EnglishAuctionWithdraw",
      "type": "event"
    },
    {
      "anonymous": false,
      "inputs": [
        {
          "indexed": true,
          "internalType": "address",
          "name": "nftAddr",
          "type": "address"
        },
        {
          "indexed": true,
          "internalType": "address",
          "name": "bider",
          "type": "address"
        },
        {
          "indexed": true,
          "internalType": "uint256",
          "name": "tokenId",
          "type": "uint256"
        },
        {
          "indexed": false,
          "internalType": "uint256",
          "name": "exchangeTokenId",
          "type": "uint256"
        }
      ],
      "name": "ExchangeAuctionBid",
      "type": "event"
    },
    {
      "anonymous": false,
      "inputs": [
        {
          "indexed": true,
          "internalType": "address",
          "name": "nftAddr",
          "type": "address"
        },
        {
          "indexed": true,
          "internalType": "uint256",
          "name": "tokenId",
          "type": "uint256"
        },
        {
          "indexed": false,
          "internalType": "uint256",
          "name": "exchangeTokenId",
          "type": "uint256"
        }
      ],
      "name": "ExchangeAuctionEnd",
      "type": "event"
    },
    {
      "anonymous": false,
      "inputs": [
        {
          "indexed": true,
          "internalType": "address",
          "name": "nftAddr",
          "type": "address"
        },
        {
          "indexed": true,
          "internalType": "address",
          "name": "seller",
          "type": "address"
        },
        {
          "indexed": true,
          "internalType": "uint256",
          "name": "tokenId",
          "type": "uint256"
        }
      ],
      "name": "ExchangeAuctionRevoke",
      "type": "event"
    },
    {
      "anonymous": false,
      "inputs": [
        {
          "indexed": true,
          "internalType": "address",
          "name": "nftAddr",
          "type": "address"
        },
        {
          "indexed": true,
          "internalType": "address",
          "name": "seller",
          "type": "address"
        },
        {
          "indexed": true,
          "internalType": "uint256",
          "name": "tokenId",
          "type": "uint256"
        }
      ],
      "name": "ExchangeAuctionStart",
      "type": "event"
    },
    {
      "anonymous": false,
      "inputs": [
        {
          "indexed": true,
          "internalType": "address",
          "name": "nftAddr",
          "type": "address"
        },
        {
          "indexed": true,
          "internalType": "address",
          "name": "bider",
          "type": "address"
        },
        {
          "indexed": true,
          "internalType": "uint256",
          "name": "tokenId",
          "type": "uint256"
        },
        {
          "indexed": false,
          "internalType": "uint256",
          "name": "exchangeTokenId",
          "type": "uint256"
        }
      ],
      "name": "ExchangeAuctionWithdraw",
      "type": "event"
    },
    {
      "anonymous": false,
      "inputs": [
        {
          "indexed": true,
          "internalType": "address",
          "name": "nftAddr",
          "type": "address"
        },
        {
          "indexed": true,
          "internalType": "address",
          "name": "buyer",
          "type": "address"
        },
        {
          "indexed": true,
          "internalType": "uint256",
          "name": "tokenId",
          "type": "uint256"
        },
        {
          "indexed": false,
          "internalType": "uint256",
          "name": "price",
          "type": "uint256"
        }
      ],
      "name": "FixedPurchase",
      "type": "event"
    },
    {
      "anonymous": false,
      "inputs": [
        {
          "indexed": true,
          "internalType": "address",
          "name": "nftAddr",
          "type": "address"
        },
        {
          "indexed": true,
          "internalType": "address",
          "name": "seller",
          "type": "address"
        },
        {
          "indexed": true,
          "internalType": "uint256",
          "name": "tokenId",
          "type": "uint256"
        }
      ],
      "name": "FixedRevoke",
      "type": "event"
    },
    {
      "anonymous": false,
      "inputs": [
        {
          "indexed": true,
          "internalType": "address",
          "name": "nftAddr",
          "type": "address"
        },
        {
          "indexed": true,
          "internalType": "address",
          "name": "seller",
          "type": "address"
        },
        {
          "indexed": true,
          "internalType": "uint256",
          "name": "tokenId",
          "type": "uint256"
        },
        {
          "indexed": false,
          "internalType": "uint256",
          "name": "price",
          "type": "uint256"
        },
        {
          "indexed": false,
          "internalType": "uint256",
          "name": "endTime",
          "type": "uint256"
        }
      ],
      "name": "FixedStart",
      "type": "event"
    },
    {
      "anonymous": false,
      "inputs": [
        {
          "indexed": true,
          "internalType": "address",
          "name": "nftAddr",
          "type": "address"
        },
        {
          "indexed": true,
          "internalType": "address",
          "name": "seller",
          "type": "address"
        },
        {
          "indexed": true,
          "internalType": "uint256",
          "name": "tokenId",
          "type": "uint256"
        },
        {
          "indexed": false,
          "internalType": "uint256",
          "name": "newPrice",
          "type": "uint256"
        }
      ],
      "name": "FixedUpdate",
      "type": "event"
    },
    {
      "inputs": [],
      "name": "DUTCH_AUCTION_DROP_INTERVAL",
      "outputs": [
        {
          "internalType": "uint256",
          "name": "",
          "type": "uint256"
        }
      ],
      "stateMutability": "view",
      "type": "function"
    },
    {
      "inputs": [
        {
          "internalType": "address",
          "name": "",
          "type": "address"
        },
        {
          "internalType": "uint256",
          "name": "",
          "type": "uint256"
        }
      ],
      "name": "_duOrderMap",
      "outputs": [
        {
          "internalType": "address",
          "name": "owner",
          "type": "address"
        },
        {
          "internalType": "uint256",
          "name": "startPrice",
          "type": "uint256"
        },
        {
          "internalType": "uint256",
          "name": "floorPrice",
          "type": "uint256"
        },
        {
          "internalType": "uint256",
          "name": "startTime",
          "type": "uint256"
        },
        {
          "internalType": "uint256",
          "name": "endTime",
          "type": "uint256"
        },
        {
          "internalType": "uint256",
          "name": "discountRate",
          "type": "uint256"
        }
      ],
      "stateMutability": "view",
      "type": "function"
    },
    {
      "inputs": [
        {
          "internalType": "address",
          "name": "nftAddr",
          "type": "address"
        },
        {
          "internalType": "uint256",
          "name": "tokenId",
          "type": "uint256"
        }
      ],
      "name": "duAuctionBid",
      "outputs": [],
      "stateMutability": "payable",
      "type": "function"
    },
    {
      "inputs": [
        {
          "internalType": "address",
          "name": "nftAddr",
          "type": "address"
        },
        {
          "internalType": "uint256",
          "name": "tokenId",
          "type": "uint256"
        }
      ],
      "name": "duAuctionRevoke",
      "outputs": [],
      "stateMutability": "nonpayable",
      "type": "function"
    },
    {
      "inputs": [
        {
          "internalType": "address",
          "name": "nftAddr",
          "type": "address"
        },
        {
          "internalType": "uint256",
          "name": "tokenId",
          "type": "uint256"
        },
        {
          "internalType": "uint256",
          "name": "price",
          "type": "uint256"
        },
        {
          "internalType": "uint256",
          "name": "floorPrice",
          "type": "uint256"
        },
        {
          "internalType": "uint256",
          "name": "endTime",
          "type": "uint256"
        }
      ],
      "name": "duAuctionStart",
      "outputs": [],
      "stateMutability": "nonpayable",
      "type": "function"
    },
    {
      "inputs": [
        {
          "internalType": "address",
          "name": "nftAddr",
          "type": "address"
        },
        {
          "internalType": "uint256",
          "name": "tokenId",
          "type": "uint256"
        }
      ],
      "name": "enAuctionBid",
      "outputs": [],
      "stateMutability": "payable",
      "type": "function"
    },
    {
      "inputs": [
        {
          "internalType": "address",
          "name": "nftAddr",
          "type": "address"
        },
        {
          "internalType": "uint256",
          "name": "tokenId",
          "type": "uint256"
        }
      ],
      "name": "enAuctionEnd",
      "outputs": [],
      "stateMutability": "nonpayable",
      "type": "function"
    },
    {
      "inputs": [
        {
          "internalType": "address",
          "name": "nftAddr",
          "type": "address"
        },
        {
          "internalType": "uint256",
          "name": "tokenId",
          "type": "uint256"
        }
      ],
      "name": "enAuctionRevoke",
      "outputs": [],
      "stateMutability": "nonpayable",
      "type": "function"
    },
    {
      "inputs": [
        {
          "internalType": "address",
          "name": "nftAddr",
          "type": "address"
        },
        {
          "internalType": "uint256",
          "name": "tokenId",
          "type": "uint256"
        },
        {
          "internalType": "uint256",
          "name": "reservePrice",
          "type": "uint256"
        },
        {
          "internalType": "uint256",
          "name": "minimumAddPrice",
          "type": "uint256"
        },
        {
          "internalType": "uint256",
          "name": "endTime",
          "type": "uint256"
        }
      ],
      "name": "enAuctionStart",
      "outputs": [],
      "stateMutability": "nonpayable",
      "type": "function"
    },
    {
      "inputs": [
        {
          "internalType": "address",
          "name": "nftAddr",
          "type": "address"
        },
        {
          "internalType": "uint256",
          "name": "tokenId",
          "type": "uint256"
        }
      ],
      "name": "enAuctionWithdraw",
      "outputs": [],
      "stateMutability": "nonpayable",
      "type": "function"
    },
    {
      "inputs": [
        {
          "internalType": "address",
          "name": "nftAddr",
          "type": "address"
        },
        {
          "internalType": "uint256",
          "name": "tokenId",
          "type": "uint256"
        },
        {
          "internalType": "uint256",
          "name": "exchangeTokenId",
          "type": "uint256"
        }
      ],
      "name": "exchangeBid",
      "outputs": [],
      "stateMutability": "nonpayable",
      "type": "function"
    },
    {
      "inputs": [
        {
          "internalType": "address",
          "name": "nftAddr",
          "type": "address"
        },
        {
          "internalType": "uint256",
          "name": "tokenId",
          "type": "uint256"
        },
        {
          "internalType": "uint256",
          "name": "exchangeTokenId",
          "type": "uint256"
        }
      ],
      "name": "exchangeEnd",
      "outputs": [],
      "stateMutability": "nonpayable",
      "type": "function"
    },
    {
      "inputs": [
        {
          "internalType": "address",
          "name": "nftAddr",
          "type": "address"
        },
        {
          "internalType": "uint256",
          "name": "tokenId",
          "type": "uint256"
        }
      ],
      "name": "exchangeRevoke",
      "outputs": [],
      "stateMutability": "nonpayable",
      "type": "function"
    },
    {
      "inputs": [
        {
          "internalType": "address",
          "name": "nftAddr",
          "type": "address"
        },
        {
          "internalType": "uint256",
          "name": "tokenId",
          "type": "uint256"
        },
        {
          "internalType": "uint256",
          "name": "endTime",
          "type": "uint256"
        }
      ],
      "name": "exchangeStart",
      "outputs": [],
      "stateMutability": "nonpayable",
      "type": "function"
    },
    {
      "inputs": [
        {
          "internalType": "address",
          "name": "nftAddr",
          "type": "address"
        },
        {
          "internalType": "uint256",
          "name": "tokenId",
          "type": "uint256"
        },
        {
          "internalType": "uint256",
          "name": "exchangeTokenId",
          "type": "uint256"
        }
      ],
      "name": "exchangeWithdraw",
      "outputs": [],
      "stateMutability": "nonpayable",
      "type": "function"
    },
    {
      "inputs": [
        {
          "internalType": "address",
          "name": "nftAddr",
          "type": "address"
        },
        {
          "internalType": "uint256",
          "name": "tokenId",
          "type": "uint256"
        }
      ],
      "name": "fixedPurchase",
      "outputs": [],
      "stateMutability": "payable",
      "type": "function"
    },
    {
      "inputs": [
        {
          "internalType": "address",
          "name": "nftAddr",
          "type": "address"
        },
        {
          "internalType": "uint256",
          "name": "tokenId",
          "type": "uint256"
        }
      ],
      "name": "fixedRevoke",
      "outputs": [],
      "stateMutability": "nonpayable",
      "type": "function"
    },
    {
      "inputs": [
        {
          "internalType": "address",
          "name": "nftAddr",
          "type": "address"
        },
        {
          "internalType": "uint256",
          "name": "tokenId",
          "type": "uint256"
        },
        {
          "internalType": "uint256",
          "name": "price",
          "type": "uint256"
        },
        {
          "internalType": "uint256",
          "name": "endTime",
          "type": "uint256"
        }
      ],
      "name": "fixedStart",
      "outputs": [],
      "stateMutability": "nonpayable",
      "type": "function"
    },
    {
      "inputs": [
        {
          "internalType": "address",
          "name": "nftAddr",
          "type": "address"
        },
        {
          "internalType": "uint256",
          "name": "tokenId",
          "type": "uint256"
        },
        {
          "internalType": "uint256",
          "name": "price",
          "type": "uint256"
        }
      ],
      "name": "fixedUpdate",
      "outputs": [],
      "stateMutability": "nonpayable",
      "type": "function"
    },
    {
      "inputs": [
        {
          "internalType": "address",
          "name": "nftAddr",
          "type": "address"
        },
        {
          "internalType": "uint256",
          "name": "tokenId",
          "type": "uint256"
        }
      ],
      "name": "getDuAuction",
      "outputs": [
        {
          "internalType": "address",
          "name": "owner",
          "type": "address"
        },
        {
          "internalType": "uint256",
          "name": "startPrice",
          "type": "uint256"
        },
        {
          "internalType": "uint256",
          "name": "floorPrice",
          "type": "uint256"
        },
        {
          "internalType": "uint256",
          "name": "startTime",
          "type": "uint256"
        },
        {
          "internalType": "uint256",
          "name": "endTime",
          "type": "uint256"
        },
        {
          "internalType": "uint256",
          "name": "nowPrice",
          "type": "uint256"
        }
      ],
      "stateMutability": "view",
      "type": "function"
    },
    {
      "inputs": [
        {
          "internalType": "address",
          "name": "nftAddr",
          "type": "address"
        },
        {
          "internalType": "uint256",
          "name": "tokenId",
          "type": "uint256"
        }
      ],
      "name": "getEnAuction",
      "outputs": [
        {
          "internalType": "address",
          "name": "owner",
          "type": "address"
        },
        {
          "internalType": "uint256",
          "name": "reservePrice",
          "type": "uint256"
        },
        {
          "internalType": "uint256",
          "name": "minimumAddPrice",
          "type": "uint256"
        },
        {
          "internalType": "uint256",
          "name": "startTime",
          "type": "uint256"
        },
        {
          "internalType": "uint256",
          "name": "endTime",
          "type": "uint256"
        },
        {
          "internalType": "address[]",
          "name": "bidList",
          "type": "address[]"
        },
        {
          "internalType": "uint256[]",
          "name": "bidPriceList",
          "type": "uint256[]"
        },
        {
          "internalType": "address",
          "name": "highestBid",
          "type": "address"
        },
        {
          "internalType": "uint256",
          "name": "highestPrice",
          "type": "uint256"
        },
        {
          "internalType": "uint256",
          "name": "nowPirce",
          "type": "uint256"
        }
      ],
      "stateMutability": "view",
      "type": "function"
    },
    {
      "inputs": [
        {
          "internalType": "address",
          "name": "nftAddr",
          "type": "address"
        },
        {
          "internalType": "uint256",
          "name": "tokenId",
          "type": "uint256"
        }
      ],
      "name": "getExchange",
      "outputs": [
        {
          "internalType": "address",
          "name": "owner",
          "type": "address"
        },
        {
          "internalType": "uint256",
          "name": "startTime",
          "type": "uint256"
        },
        {
          "internalType": "uint256",
          "name": "endTime",
          "type": "uint256"
        },
        {
          "internalType": "address[]",
          "name": "bidList",
          "type": "address[]"
        },
        {
          "internalType": "uint256[]",
          "name": "bidTokenList",
          "type": "uint256[]"
        }
      ],
      "stateMutability": "view",
      "type": "function"
    },
    {
      "inputs": [
        {
          "internalType": "address",
          "name": "nftAddr",
          "type": "address"
        },
        {
          "internalType": "uint256",
          "name": "tokenId",
          "type": "uint256"
        }
      ],
      "name": "getFixed",
      "outputs": [
        {
          "internalType": "address",
          "name": "",
          "type": "address"
        },
        {
          "internalType": "uint256",
          "name": "",
          "type": "uint256"
        },
        {
          "internalType": "uint256",
          "name": "",
          "type": "uint256"
        }
      ],
      "stateMutability": "view",
      "type": "function"
    },
    {
      "inputs": [
        {
          "internalType": "address",
          "name": "nftAddr",
          "type": "address"
        },
        {
          "internalType": "uint256",
          "name": "tokenId",
          "type": "uint256"
        }
      ],
      "name": "getStatus",
      "outputs": [
        {
          "internalType": "enum MarketState.Status",
          "name": "",
          "type": "uint8"
        }
      ],
      "stateMutability": "view",
      "type": "function"
    },
    {
      "inputs": [
        {
          "internalType": "address",
          "name": "operator",
          "type": "address"
        },
        {
          "internalType": "address",
          "name": "from",
          "type": "address"
        },
        {
          "internalType": "uint256",
          "name": "tokenId",
          "type": "uint256"
        },
        {
          "internalType": "bytes",
          "name": "data",
          "type": "bytes"
        }
      ],
      "name": "onERC721Received",
      "outputs": [
        {
          "internalType": "bytes4",
          "name": "",
          "type": "bytes4"
        }
      ],
      "stateMutability": "nonpayable",
      "type": "function"
    }
  ],
  "bytecode": "0x608060405234801561001057600080fd5b5061461a806100206000396000f3fe6080604052600436106101955760003560e01c80634ce0ef95116100e1578063b1e7d0781161008a578063dbc0fd5211610064578063dbc0fd5214610568578063f033cda314610588578063f323965e146105a8578063fd68832b146105cc57600080fd5b8063b1e7d078146104e3578063bcb3c78114610528578063bd0e201b1461054857600080fd5b80637e3bcab6116100bb5780637e3bcab614610469578063975636331461049f578063aa651357146104d057600080fd5b80634ce0ef95146103e557806355d73d82146104365780637053bfc81461045657600080fd5b80631f5e72ab11610143578063383aab241161011d578063383aab24146103855780633dfee2df146103a557806348ea07ee146103c557600080fd5b80631f5e72ab146102b75780632a4db750146102ca5780633802d767146102ea57600080fd5b806308327c4b1161017457806308327c4b146101fc578063150b7a021461021c5780631a5363651461029757600080fd5b8062f4cebc1461019a578063058f9f03146101bc578063059711b8146101dc575b600080fd5b3480156101a657600080fd5b506101ba6101b53660046142fa565b6105ec565b005b3480156101c857600080fd5b506101ba6101d73660046142fa565b6109b3565b3480156101e857600080fd5b506101ba6101f7366004614325565b610ef9565b34801561020857600080fd5b506101ba6102173660046142fa565b611152565b34801561022857600080fd5b50610261610237366004614260565b7f150b7a020000000000000000000000000000000000000000000000000000000095945050505050565b6040517fffffffff0000000000000000000000000000000000000000000000000000000090911681526020015b60405180910390f35b3480156102a357600080fd5b506101ba6102b2366004614393565b611324565b6101ba6102c53660046142fa565b6115ef565b3480156102d657600080fd5b506101ba6102e5366004614325565b61199d565b3480156102f657600080fd5b5061034e6103053660046142fa565b600260208181526000938452604080852090915291835291208054600182015492820154600383015460048401546005909401546001600160a01b039093169493919290919086565b604080516001600160a01b0390971687526020870195909552938501929092526060840152608083015260a082015260c00161028e565b34801561039157600080fd5b506101ba6103a03660046142fa565b611ca7565b3480156103b157600080fd5b506101ba6103c0366004614393565b611ec3565b3480156103d157600080fd5b506101ba6103e0366004614325565b612063565b3480156103f157600080fd5b506104296104003660046142fa565b6001600160a01b0391909116600090815260208181526040808320938352929052205460ff1690565b60405161028e9190614508565b34801561044257600080fd5b506101ba610451366004614325565b61237e565b6101ba6104643660046142fa565b6124af565b34801561047557600080fd5b506104896104843660046142fa565b612835565b60405161028e9a99989796959493929190614494565b3480156104ab57600080fd5b506104bf6104ba3660046142fa565b612ae6565b60405161028e959493929190614448565b6101ba6104de3660046142fa565b612d19565b3480156104ef57600080fd5b506105036104fe3660046142fa565b61309b565b604080516001600160a01b03909416845260208401929092529082015260600161028e565b34801561053457600080fd5b506101ba610543366004614325565b61316e565b34801561055457600080fd5b5061034e6105633660046142fa565b613589565b34801561057457600080fd5b506101ba6105833660046142fa565b613708565b34801561059457600080fd5b506101ba6105a33660046142fa565b61397c565b3480156105b457600080fd5b506105be61025881565b60405190815260200161028e565b3480156105d857600080fd5b506101ba6105e7366004614359565b613c44565b6040516331a9108f60e11b81526004810182905282908290829030906001600160a01b03831690636352211e9060240160206040518083038186803b15801561063457600080fd5b505afa158015610648573d6000803e3d6000fd5b505050506040513d601f19601f8201168201806040525081019061066c919061423d565b6001600160a01b0316146106b95760405162461bcd60e51b815260206004820152600f60248201526e496e76616c69642073657474696e6760881b60448201526064015b60405180910390fd5b6001600160a01b03851660009081526020818152604080832087845290915290205460039060ff16600581111561070057634e487b7160e01b600052602160045260246000fd5b146107435760405162461bcd60e51b81526020600482015260136024820152724e6f7420696e207468652061756374696f6e2160681b60448201526064016106b0565b6001600160a01b0380861660009081526003602090815260408083208884529091529020805490911633146107a65760405162461bcd60e51b81526020600482015260096024820152682737ba1037bbb732b960b91b60448201526064016106b0565b60005b60078201548110156108d55760008260050160008460070184815481106107e057634e487b7160e01b600052603260045260246000fd5b60009182526020808320909101546001600160a01b0316835282019290925260400190205411156108c35781600701818154811061082e57634e487b7160e01b600052603260045260246000fd5b60009182526020822001546007840180546001600160a01b03909216926108fc926005870192908690811061087357634e487b7160e01b600052603260045260246000fd5b60009182526020808320909101546001600160a01b03168352820192909252604090810182205490518115909302929091818181858888f193505050501580156108c1573d6000803e3d6000fd5b505b806108cd8161459e565b9150506107a9565b5080546108ee90879087906001600160a01b0316613d97565b6108fa86866000613edd565b6001600160a01b0386166000908152600360208181526040808420898552909152822080546001600160a01b031916815560018101839055600281018390559081018290556004810182905590610954600783018261420b565b506008810180546001600160a01b031916905560006009909101819055815460405187926001600160a01b03928316928a16917f29cbf5ccd7e5f77224023a73e9af3ef25afc795d220cf559442f4e83c6539e399190a4505050505050565b6040516331a9108f60e11b81526004810182905282908290829030906001600160a01b03831690636352211e9060240160206040518083038186803b1580156109fb57600080fd5b505afa158015610a0f573d6000803e3d6000fd5b505050506040513d601f19601f82011682018060405250810190610a33919061423d565b6001600160a01b031614610a7b5760405162461bcd60e51b815260206004820152600f60248201526e496e76616c69642073657474696e6760881b60448201526064016106b0565b6001600160a01b03851660009081526020818152604080832087845290915290205460039060ff166005811115610ac257634e487b7160e01b600052602160045260246000fd5b14610b055760405162461bcd60e51b81526020600482015260136024820152724e6f7420696e207468652061756374696f6e2160681b60448201526064016106b0565b6001600160a01b0385166000908152600360209081526040808320878452909152902060048101544211610b7b5760405162461bcd60e51b815260206004820152601760248201527f41756374696f6e206973206e6f742066696e697368656400000000000000000060448201526064016106b0565b60088101546001600160a01b0316610c79578054610ba590879087906001600160a01b0316613d97565b610bb186866000613edd565b6001600160a01b0386166000908152600360208181526040808420898552909152822080546001600160a01b031916815560018101839055600281018390559081018290556004810182905590610c0b600783018261420b565b50600881810180546001600160a01b031916905560006009928301558201549082015460405190815286916001600160a01b0390811691908916907f6b7182182cd51cc0c1c40a815062940d1a1453d83e46ebde38e349183c86d0d39060200160405180910390a450610ef2565b6008810154610c9490879087906001600160a01b0316613d97565b805460098201546040516001600160a01b039092169181156108fc0291906000818181858888f19350505050158015610cd1573d6000803e3d6000fd5b5060088101546001600160a01b0316600090815260058201602052604081208190555b6007820154811015610e20576000826005016000846007018481548110610d2b57634e487b7160e01b600052603260045260246000fd5b60009182526020808320909101546001600160a01b031683528201929092526040019020541115610e0e57816007018181548110610d7957634e487b7160e01b600052603260045260246000fd5b60009182526020822001546007840180546001600160a01b03909216926108fc9260058701929086908110610dbe57634e487b7160e01b600052603260045260246000fd5b60009182526020808320909101546001600160a01b03168352820192909252604090810182205490518115909302929091818181858888f19350505050158015610e0c573d6000803e3d6000fd5b505b80610e188161459e565b915050610cf4565b50610e2d86866000613edd565b6001600160a01b0386166000908152600360208181526040808420898552909152822080546001600160a01b031916815560018101839055600281018390559081018290556004810182905590610e87600783018261420b565b50600881810180546001600160a01b031916905560006009928301558201549082015460405190815286916001600160a01b0390811691908916907f6b7182182cd51cc0c1c40a815062940d1a1453d83e46ebde38e349183c86d0d3906020015b60405180910390a4505b5050505050565b6040516331a9108f60e11b81526004810183905283908390829030906001600160a01b03831690636352211e9060240160206040518083038186803b158015610f4157600080fd5b505afa158015610f55573d6000803e3d6000fd5b505050506040513d601f19601f82011682018060405250810190610f79919061423d565b6001600160a01b031614610fc15760405162461bcd60e51b815260206004820152600f60248201526e496e76616c69642073657474696e6760881b60448201526064016106b0565b6001600160a01b03861660009081526020818152604080832088845290915290205460019060ff16600581111561100857634e487b7160e01b600052602160045260246000fd5b146110555760405162461bcd60e51b815260206004820152601960248201527f43616e2774206d6f64696679206669786564207072696365210000000000000060448201526064016106b0565b6001600160a01b0380871660009081526001602090815260408083208984529091529020805490911633146110b85760405162461bcd60e51b81526020600482015260096024820152682737ba1037bbb732b960b91b60448201526064016106b0565b80600201544211156110fa5760405162461bcd60e51b815260206004820152600b60248201526a125d09dcc813dd995c995960aa1b60448201526064016106b0565b60018101859055805460405186815287916001600160a01b0390811691908a16907f75a666af8f5a0e39c625929cb6e9373f80bf8bb381c7be01f455f325c0bf26c0906020015b60405180910390a450505050505050565b6001600160a01b03821660009081526020818152604080832084845290915290205460029060ff16600581111561119957634e487b7160e01b600052602160045260246000fd5b146111dc5760405162461bcd60e51b81526020600482015260136024820152724e6f7420696e207468652061756374696f6e2160681b60448201526064016106b0565b6001600160a01b038083166000908152600260208181526040808420868552825292839020835160c0810185528154909516808652600182015492860192909252918201549284019290925260038101546060840152600481015460808401526005015460a0830152331461127f5760405162461bcd60e51b81526020600482015260096024820152682737ba1037bbb732b960b91b60448201526064016106b0565b61128e83838360000151613d97565b61129a83836000613edd565b6001600160a01b03808416600081815260026020818152604080842088855290915280832080546001600160a01b031916815560018101849055918201839055600382018390556004820183905560059091018290558451905186949190911692917feba51160295dcc1b2c60ea37e95a90b95d27ab24548100ef966a9b63e5371a7891a4505050565b6001600160a01b03851660009081526020818152604080832087845290915281205460ff16600581111561136857634e487b7160e01b600052602160045260246000fd5b146113a95760405162461bcd60e51b815260206004820152601160248201527043616e27742053656c6c20416761696e2160781b60448201526064016106b0565b8183101561141f5760405162461bcd60e51b815260206004820152602860248201527f7072696365206973206e65656465642067726561746572207468616e20666c6f60448201527f6f7250726963652100000000000000000000000000000000000000000000000060648201526084016106b0565b428110156114795760405162461bcd60e51b815260206004820152602160248201527f656e6454696d65206973206e656564656420616674657220737461727454696d6044820152606560f81b60648201526084016106b0565b60006114858686613f33565b90504260006102586114978386614587565b6114a18789614587565b6114ab9190614548565b6114b59190614568565b90506040518060c00160405280846001600160a01b0316815260200187815260200186815260200142815260200185815260200182815250600260008a6001600160a01b03166001600160a01b03168152602001908152602001600020600089815260200190815260200160002060008201518160000160006101000a8154816001600160a01b0302191690836001600160a01b031602179055506020820151816001015560408201518160020155606082015181600301556080820151816004015560a0820151816005015590505061159188886002613edd565b604080518781526020810187905290810185905287906001600160a01b0380861691908b16907f52833f7317b2f5d42c1f714a3297b6a23964ce21465992462a8ed97ec42fcee6906060015b60405180910390a45050505050505050565b6040516331a9108f60e11b81526004810182905282908290829030906001600160a01b03831690636352211e9060240160206040518083038186803b15801561163757600080fd5b505afa15801561164b573d6000803e3d6000fd5b505050506040513d601f19601f8201168201806040525081019061166f919061423d565b6001600160a01b0316146116b75760405162461bcd60e51b815260206004820152600f60248201526e496e76616c69642073657474696e6760881b60448201526064016106b0565b6001600160a01b03851660009081526020818152604080832087845290915290205460029060ff1660058111156116fe57634e487b7160e01b600052602160045260246000fd5b146117415760405162461bcd60e51b81526020600482015260136024820152724e6f7420696e207468652061756374696f6e2160681b60448201526064016106b0565b6001600160a01b038086166000908152600260208181526040808420898552825292839020835160c0810185528154909516808652600182015492860192909252918201549284019290925260038101546060840152600481015460808401526005015460a08301523314156117e95760405162461bcd60e51b815260206004820152600d60248201526c2cb7ba9030b9329037bbb732b960991b60448201526064016106b0565b806080015142111561182b5760405162461bcd60e51b815260206004820152600b60248201526a125d09dcc813dd995c995960aa1b60448201526064016106b0565b60006118378787613589565b955050505050508034101561188e5760405162461bcd60e51b815260206004820152601660248201527f7061796d656e74206973206e6f7420656e6f756768210000000000000000000060448201526064016106b0565b611899878733613d97565b81516040516001600160a01b039091169082156108fc029083906000818181858888f193505050501580156118d2573d6000803e3d6000fd5b50336108fc6118e18334614587565b6040518115909202916000818181858888f19350505050158015611909573d6000803e3d6000fd5b5061191687876000613edd565b6001600160a01b03871660008181526002602081815260408084208b8552825280842080546001600160a01b0319168155600181018590559283018490556003830184905560048301849055600590920192909255518381528892339290917f1813e45a4f41523e868754bba85a1b530d13f2d78af45022419131b0bc1f66939101611141565b6040516331a9108f60e11b81526004810182905283908290829030906001600160a01b03831690636352211e9060240160206040518083038186803b1580156119e557600080fd5b505afa1580156119f9573d6000803e3d6000fd5b505050506040513d601f19601f82011682018060405250810190611a1d919061423d565b6001600160a01b031614611a655760405162461bcd60e51b815260206004820152600f60248201526e496e76616c69642073657474696e6760881b60448201526064016106b0565b6001600160a01b03861660009081526020818152604080832088845290915290205460049060ff166005811115611aac57634e487b7160e01b600052602160045260246000fd5b14611aef5760405162461bcd60e51b81526020600482015260136024820152724e6f7420696e207468652061756374696f6e2160681b60448201526064016106b0565b6001600160a01b0380871660009081526004602081815260408084208a85528252808420898552928301909152909120549091163314611b975760405162461bcd60e51b815260206004820152602160248201527f596f7520617265206e6f742065786368616e6765546f6b656e4964206f776e6560448201527f720000000000000000000000000000000000000000000000000000000000000060648201526084016106b0565b6001600160a01b03871660009081526020818152604080832088845290915290205460059060ff166005811115611bde57634e487b7160e01b600052602160045260246000fd5b14611c2b5760405162461bcd60e51b815260206004820181905260248201527f596f757220746f6b656e206973206e6f7420696e2065786368616e67696e672160448201526064016106b0565b611c36878633613d97565b6000858152600482016020526040812080546001600160a01b0319169055611c619088908790613edd565b85336001600160a01b0316886001600160a01b03167f77f6391decae7653d60fbb090e2b157242ca29bcda90558e6a77dcf0ac7942de8860405161114191815260200190565b6001600160a01b03821660009081526020818152604080832084845290915290205460039060ff166005811115611cee57634e487b7160e01b600052602160045260246000fd5b14611d315760405162461bcd60e51b81526020600482015260136024820152724e6f7420696e207468652061756374696f6e2160681b60448201526064016106b0565b6001600160a01b03828116600090815260036020908152604080832085845290915290206008810154909116331415611dd25760405162461bcd60e51b815260206004820152602960248201527f796f7520617265206869676865737442696465722c206e6f7420616c6c6f772060448201527f776974686472617721000000000000000000000000000000000000000000000060648201526084016106b0565b33600090815260058201602052604090205480611e315760405162461bcd60e51b815260206004820152600b60248201527f4e6f2062616c616e63652100000000000000000000000000000000000000000060448201526064016106b0565b3360008181526005840160205260408082208290555183156108fc0291849190818181858888f19350505050158015611e6e573d6000803e3d6000fd5b5082336001600160a01b0316856001600160a01b03167f4c49ccebe003ca3e97627a677854c98b0e321b64b376c5c13f5aa854f7c2e40084604051611eb591815260200190565b60405180910390a450505050565b6001600160a01b03851660009081526020818152604080832087845290915281205460ff166005811115611f0757634e487b7160e01b600052602160045260246000fd5b14611f485760405162461bcd60e51b815260206004820152601160248201527043616e27742053656c6c20416761696e2160781b60448201526064016106b0565b42811015611fa25760405162461bcd60e51b815260206004820152602160248201527f656e6454696d65206973206e656564656420616674657220737461727454696d6044820152606560f81b60648201526084016106b0565b6000611fae8686613f33565b6001600160a01b0387811660009081526003602081815260408084208b855290915290912080546001600160a01b0319169284169290921782556001820187905560028201869055428282015560048201859055919250906120139088908890613edd565b604080518681526020810186905290810184905286906001600160a01b0380851691908a16907f462478bf97a6a2df9c7cfdfbc8273ac68d7ecaff617753beec272fd6f965742990606001611141565b6001600160a01b03831660009081526020818152604080832085845290915290205460049060ff1660058111156120aa57634e487b7160e01b600052602160045260246000fd5b146120ed5760405162461bcd60e51b81526020600482015260136024820152724e6f7420696e207468652061756374696f6e2160681b60448201526064016106b0565b6040516331a9108f60e11b815260048101829052839033906001600160a01b03831690636352211e9060240160206040518083038186803b15801561213157600080fd5b505afa158015612145573d6000803e3d6000fd5b505050506040513d601f19601f82011682018060405250810190612169919061423d565b6001600160a01b0316146121bf5760405162461bcd60e51b815260206004820152601160248201527f596f7520617265206e6f74206f776e657200000000000000000000000000000060448201526064016106b0565b6001600160a01b03841660009081526020818152604080832085845290915281205460ff16600581111561220357634e487b7160e01b600052602160045260246000fd5b146122765760405162461bcd60e51b815260206004820152602960248201527f596f757220746f6b656e20697320696e2073656c6c696e672c2043616e27742060448201527f65786368616e676521000000000000000000000000000000000000000000000060648201526084016106b0565b6001600160a01b0384166000908152600460209081526040808320868452909152902060028101544211156122db5760405162461bcd60e51b815260206004820152600b60248201526a125d09dcc813dd995c995960aa1b60448201526064016106b0565b6122e58584613f33565b5060008381526004820160209081526040822080546001600160a01b0319163317905560038301805460018101825590835291200183905561232985846005613edd565b83336001600160a01b0316866001600160a01b03167f48acb2d2cdc4a28aa4b7cb36a27ce3f9443bd2d558a7c69516bf6422f9fd419b8660405161236f91815260200190565b60405180910390a45050505050565b6001600160a01b03831660009081526020818152604080832085845290915281205460ff1660058111156123c257634e487b7160e01b600052602160045260246000fd5b146124035760405162461bcd60e51b815260206004820152601160248201527043616e27742053656c6c20416761696e2160781b60448201526064016106b0565b600061240f8484613f33565b6001600160a01b03858116600090815260046020818152604080842089855290915290912080546001600160a01b03191692841692909217825542600183015560028201859055919250906124679086908690613edd565b82826001600160a01b0316866001600160a01b03167fbb13336694fe16ba825850b8676bf4f65823f176a68f84991349557ef031dc7f60405160405180910390a45050505050565b6040516331a9108f60e11b81526004810182905282908290829030906001600160a01b03831690636352211e9060240160206040518083038186803b1580156124f757600080fd5b505afa15801561250b573d6000803e3d6000fd5b505050506040513d601f19601f8201168201806040525081019061252f919061423d565b6001600160a01b0316146125775760405162461bcd60e51b815260206004820152600f60248201526e496e76616c69642073657474696e6760881b60448201526064016106b0565b6001600160a01b03851660009081526020818152604080832087845290915290205460019060ff1660058111156125be57634e487b7160e01b600052602160045260246000fd5b1461260b5760405162461bcd60e51b815260206004820152601960248201527f54686520746f6b656e206973206e6f742073656c6c696e67210000000000000060448201526064016106b0565b6001600160a01b03808616600090815260016020818152604080842089855282529283902083516060810185528154909516808652928101549185019190915260020154918301919091523314156126955760405162461bcd60e51b815260206004820152600d60248201526c2cb7ba9030b9329037bbb732b960991b60448201526064016106b0565b80604001514211156126d75760405162461bcd60e51b815260206004820152600b60248201526a125d09dcc813dd995c995960aa1b60448201526064016106b0565b806020015134101561272b5760405162461bcd60e51b815260206004820152601560248201527f7061796d656e74206973206e6f7420656e6f756768000000000000000000000060448201526064016106b0565b612736868633613d97565b805160208201516040516001600160a01b039092169181156108fc0291906000818181858888f19350505050158015612773573d6000803e3d6000fd5b50602081015133906108fc906127899034614587565b6040518115909202916000818181858888f193505050501580156127b1573d6000803e3d6000fd5b506127be86866000613edd565b6001600160a01b03861660008181526001602081815260408084208a8552825280842080546001600160a01b03191681559283018490556002909201929092558382015190519081528792339290917f1f0715fbf5a1d211856630a1c03a1fe4f86e38332c04d0a66cdcf96ac138a3749101610ee8565b60008080808060608082808060036128718d8d6001600160a01b0391909116600090815260208181526040808320938352929052205460ff1690565b600581111561289057634e487b7160e01b600052602160045260246000fd5b146128d35760405162461bcd60e51b81526020600482015260136024820152724e6f7420696e207468652061756374696f6e2160681b60448201526064016106b0565b6000600360008e6001600160a01b03166001600160a01b0316815260200190815260200160002060008d815260200190815260200160002090508060000160009054906101000a90046001600160a01b03169a50806001015499508060020154985080600301549750806004015496508060080160009054906101000a90046001600160a01b0316935080600901549250806007018054806020026020016040519081016040528092919081815260200182805480156129bc57602002820191906000526020600020905b81546001600160a01b0316815260019091019060200180831161299e575b50505050509550855167ffffffffffffffff8111156129eb57634e487b7160e01b600052604160045260246000fd5b604051908082528060200260200182016040528015612a14578160200160208202803683370190505b50945060005b8651811015612aaf57816005016000888381518110612a4957634e487b7160e01b600052603260045260246000fd5b60200260200101516001600160a01b03166001600160a01b0316815260200190815260200160002054868281518110612a9257634e487b7160e01b600052603260045260246000fd5b602090810291909101015280612aa78161459e565b915050612a1a565b5060088101546001600160a01b0316612ace5780600101549150612ad6565b806009015491505b509295989b9194979a5092959850565b600080806060806004612b1d88886001600160a01b0391909116600090815260208181526040808320938352929052205460ff1690565b6005811115612b3c57634e487b7160e01b600052602160045260246000fd5b14612b895760405162461bcd60e51b815260206004820152600f60248201527f4e6f7420696e2073656c6c696e6721000000000000000000000000000000000060448201526064016106b0565b6001600160a01b0380881660009081526004602090815260408083208a8452825291829020805460018201546002830154600384018054875181880281018801909852808852939097169b509099509750909391830182828015612c0c57602002820191906000526020600020905b815481526020019060010190808311612bf8575b50505050509150815167ffffffffffffffff811115612c3b57634e487b7160e01b600052604160045260246000fd5b604051908082528060200260200182016040528015612c64578160200160208202803683370190505b50925060005b8251811015612d0d57816004016000848381518110612c9957634e487b7160e01b600052603260045260246000fd5b6020026020010151815260200190815260200160002060009054906101000a90046001600160a01b0316848281518110612ce357634e487b7160e01b600052603260045260246000fd5b6001600160a01b039092166020928302919091019091015280612d058161459e565b915050612c6a565b50509295509295909350565b6040516331a9108f60e11b81526004810182905282908290829030906001600160a01b03831690636352211e9060240160206040518083038186803b158015612d6157600080fd5b505afa158015612d75573d6000803e3d6000fd5b505050506040513d601f19601f82011682018060405250810190612d99919061423d565b6001600160a01b031614612de15760405162461bcd60e51b815260206004820152600f60248201526e496e76616c69642073657474696e6760881b60448201526064016106b0565b6001600160a01b03851660009081526020818152604080832087845290915290205460039060ff166005811115612e2857634e487b7160e01b600052602160045260246000fd5b14612e6b5760405162461bcd60e51b81526020600482015260136024820152724e6f7420696e207468652061756374696f6e2160681b60448201526064016106b0565b6001600160a01b03808616600090815260036020908152604080832088845290915290208054909116331415612ed35760405162461bcd60e51b815260206004820152600d60248201526c2cb7ba9030b9329037bbb732b960991b60448201526064016106b0565b8060040154421115612f155760405162461bcd60e51b815260206004820152600b60248201526a125d09dcc813dd995c995960aa1b60448201526064016106b0565b6000612f218787612835565b99505050505050505050506000826002015482612f3e9190614530565b3360009081526005850160205260409020549091508190612f5f9034614530565b1015612fad5760405162461bcd60e51b815260206004820152601660248201527f7061796d656e74206973206e6f7420656e6f756768210000000000000000000060448201526064016106b0565b33600090815260068401602052604090205460ff16612fee57600783018054600181018255600091825260209091200180546001600160a01b031916331790555b3360009081526006840160209081526040808320805460ff191660011790556005860190915281208054349290613026908490614530565b90915550506008830180546001600160a01b03191633908117909155600081815260058501602052604090819020546009860181905590518992916001600160a01b038c16917f6b0461e6e6260027d80a3a00f5c5baa824d43519c673decd30d172099072af44916115dd9190815260200190565b6001600160a01b0382166000908152602081815260408083208484529091528120548190819060019060ff1660058111156130e657634e487b7160e01b600052602160045260246000fd5b146131335760405162461bcd60e51b815260206004820152600f60248201527f4e6f7420696e2073656c6c696e6721000000000000000000000000000000000060448201526064016106b0565b5050506001600160a01b0391821660009081526001602081815260408084209484529390529190208054918101546002909101549190921692565b6001600160a01b03831660009081526020818152604080832085845290915290205460049060ff1660058111156131b557634e487b7160e01b600052602160045260246000fd5b146131f85760405162461bcd60e51b81526020600482015260136024820152724e6f7420696e207468652061756374696f6e2160681b60448201526064016106b0565b6001600160a01b03808416600090815260046020908152604080832086845290915290208054909116331461325b5760405162461bcd60e51b81526020600482015260096024820152682737ba1037bbb732b960b91b60448201526064016106b0565b60008281526004820160205260409020546001600160a01b03166132e75760405162461bcd60e51b815260206004820152602c60248201527f207468652065786368616e6765546f6b656e206e6f74207061727420696e207460448201527f6869732061756374696f6e21000000000000000000000000000000000000000060648201526084016106b0565b80546132ff90859084906001600160a01b0316613d97565b600082815260048201602052604090205461332690859085906001600160a01b0316613d97565b6000828152600482016020526040812080546001600160a01b03191690555b60038201548110156134d75760006001600160a01b031682600401600084600301848154811061338557634e487b7160e01b600052603260045260246000fd5b600091825260208083209091015483528201929092526040019020546001600160a01b0316146134c557613434858360030183815481106133d657634e487b7160e01b600052603260045260246000fd5b906000526020600020015484600401600086600301868154811061340a57634e487b7160e01b600052603260045260246000fd5b600091825260208083209091015483528201929092526040019020546001600160a01b0316613d97565b81600401600083600301838154811061345d57634e487b7160e01b600052603260045260246000fd5b9060005260206000200154815260200190815260200160002060006101000a8154906001600160a01b0302191690556134c5858360030183815481106134b357634e487b7160e01b600052603260045260246000fd5b90600052602060002001546000613edd565b806134cf8161459e565b915050613345565b506134e484846000613edd565b6134f084836000613edd565b6001600160a01b0384166000908152600460209081526040808320868452909152812080546001600160a01b031916815560018101829055600281018290559061353d600383018261420b565b505082846001600160a01b03167f7f7a395e2ffdba25831682574025530916480b214076d7b82777ccf1f2a08f1e8460405161357b91815260200190565b60405180910390a350505050565b6000808080808060026135c089896001600160a01b0391909116600090815260208181526040808320938352929052205460ff1690565b60058111156135df57634e487b7160e01b600052602160045260246000fd5b146136225760405162461bcd60e51b81526020600482015260136024820152724e6f7420696e207468652061756374696f6e2160681b60448201526064016106b0565b6001600160a01b0380891660009081526002602081815260408084208c8552825292839020835160c081018552815490951680865260018201549286018390529281015493850184905260038101546060860181905260048201546080870181905260059092015460a0870152929a5090985091965094509250428310156136b057806040015191506136fd565b6136b942614174565b60006102588260600151426136ce9190614587565b6136d89190614548565b90508160a00151816136ea9190614568565b82602001516136f99190614587565b9250505b509295509295509295565b6040516331a9108f60e11b81526004810182905282908290829030906001600160a01b03831690636352211e9060240160206040518083038186803b15801561375057600080fd5b505afa158015613764573d6000803e3d6000fd5b505050506040513d601f19601f82011682018060405250810190613788919061423d565b6001600160a01b0316146137d05760405162461bcd60e51b815260206004820152600f60248201526e496e76616c69642073657474696e6760881b60448201526064016106b0565b6001600160a01b03851660009081526020818152604080832087845290915290205460019060ff16600581111561381757634e487b7160e01b600052602160045260246000fd5b146138645760405162461bcd60e51b815260206004820152601860248201527f43616e2774207265766f6b652066697865642073656c6c21000000000000000060448201526064016106b0565b6001600160a01b038086166000908152600160208181526040808420898552825292839020835160608101855281549095168086529281015491850191909152600201549183019190915233146138e95760405162461bcd60e51b81526020600482015260096024820152682737ba1037bbb732b960b91b60448201526064016106b0565b6138f886868360000151613d97565b61390486866000613edd565b6001600160a01b0380871660008181526001602081815260408084208b855290915280832080546001600160a01b031916815591820183905560029091018290558451905189949190911692917f512afe87f8c07838e85c1f3b9a2a6c39434870b9724890cafce167dceb887d3c91a4505050505050565b6001600160a01b03821660009081526020818152604080832084845290915290205460049060ff1660058111156139c357634e487b7160e01b600052602160045260246000fd5b14613a065760405162461bcd60e51b81526020600482015260136024820152724e6f7420696e207468652061756374696f6e2160681b60448201526064016106b0565b6001600160a01b038083166000908152600460209081526040808320858452909152902080549091163314613a695760405162461bcd60e51b81526020600482015260096024820152682737ba1037bbb732b960b91b60448201526064016106b0565b60005b6003820154811015613b8e5760006001600160a01b0316826004016000846003018481548110613aac57634e487b7160e01b600052603260045260246000fd5b600091825260208083209091015483528201929092526040019020546001600160a01b031614613b7c57613afd848360030183815481106133d657634e487b7160e01b600052603260045260246000fd5b816004016000836003018381548110613b2657634e487b7160e01b600052603260045260246000fd5b9060005260206000200154815260200190815260200160002060006101000a8154906001600160a01b030219169055613b7c848360030183815481106134b357634e487b7160e01b600052603260045260246000fd5b80613b868161459e565b915050613a6c565b508054613ba790849084906001600160a01b0316613d97565b613bb383836000613edd565b6001600160a01b0383166000908152600460209081526040808320858452909152812080546001600160a01b0319168155600181018290556002810182905590613c00600383018261420b565b5050805460405183916001600160a01b0390811691908616907f5bf8c346afb1df1233652539f0e7157310501e1fa30be94234233f411602e95890600090a4505050565b6001600160a01b03841660009081526020818152604080832086845290915281205460ff166005811115613c8857634e487b7160e01b600052602160045260246000fd5b14613cc95760405162461bcd60e51b815260206004820152601160248201527043616e27742053656c6c20416761696e2160781b60448201526064016106b0565b6000613cd58585613f33565b604080516060810182526001600160a01b03838116825260208083018881528385018881528b8416600090815260018085528782208d835290945295909520935184546001600160a01b03191693169290921783559051828201559151600290910155909150613d489086908690613edd565b83816001600160a01b0316866001600160a01b03167fc573b8d5d034777fd8e8c8bcfe8f7b994b184939d226fac7581d54e572c82b4b868660405161236f929190918252602082015260400190565b6040516331a9108f60e11b81526004810183905283906000906001600160a01b03831690636352211e9060240160206040518083038186803b158015613ddc57600080fd5b505afa158015613df0573d6000803e3d6000fd5b505050506040513d601f19601f82011682018060405250810190613e14919061423d565b90506001600160a01b0381163014613e6e5760405162461bcd60e51b815260206004820152601360248201527f4e6f7420696e2074686973206d61726b6574210000000000000000000000000060448201526064016106b0565b604051632142170760e11b81523060048201526001600160a01b038481166024830152604482018690528316906342842e0e90606401600060405180830381600087803b158015613ebe57600080fd5b505af1158015613ed2573d6000803e3d6000fd5b505050505050505050565b6001600160a01b0383166000908152602081815260408083208584529091529020805482919060ff19166001836005811115613f2957634e487b7160e01b600052602160045260246000fd5b0217905550505050565b6040516331a9108f60e11b815260048101829052600090839082906001600160a01b03831690636352211e9060240160206040518083038186803b158015613f7a57600080fd5b505afa158015613f8e573d6000803e3d6000fd5b505050506040513d601f19601f82011682018060405250810190613fb2919061423d565b90506001600160a01b03811661400a5760405162461bcd60e51b815260206004820152600c60248201527f496e76616c6964206e667421000000000000000000000000000000000000000060448201526064016106b0565b6001600160a01b038116301461416c576040517f081812fc0000000000000000000000000000000000000000000000000000000081526004810185905230906001600160a01b0384169063081812fc9060240160206040518083038186803b15801561407557600080fd5b505afa158015614089573d6000803e3d6000fd5b505050506040513d601f19601f820116820180604052508101906140ad919061423d565b6001600160a01b0316146141035760405162461bcd60e51b815260206004820152600b60248201527f756e617070726f7665642100000000000000000000000000000000000000000060448201526064016106b0565b604051632142170760e11b81526001600160a01b038281166004830152306024830152604482018690528316906342842e0e90606401600060405180830381600087803b15801561415357600080fd5b505af1158015614167573d6000803e3d6000fd5b505050505b949350505050565b6141e78160405160240161418a91815260200190565b60408051601f198184030181529190526020810180517bffffffffffffffffffffffffffffffffffffffffffffffffffffffff167ff5b1bba9000000000000000000000000000000000000000000000000000000001790526141ea565b50565b80516a636f6e736f6c652e6c6f67602083016000808483855afa5050505050565b50805460008255906000526020600020908101906141e791905b808211156142395760008155600101614225565b5090565b60006020828403121561424e578081fd5b8151614259816145cf565b9392505050565b600080600080600060808688031215614277578081fd5b8535614282816145cf565b94506020860135614292816145cf565b935060408601359250606086013567ffffffffffffffff808211156142b5578283fd5b818801915088601f8301126142c8578283fd5b8135818111156142d6578384fd5b8960208285010111156142e7578384fd5b9699959850939650602001949392505050565b6000806040838503121561430c578182fd5b8235614317816145cf565b946020939093013593505050565b600080600060608486031215614339578283fd5b8335614344816145cf565b95602085013595506040909401359392505050565b6000806000806080858703121561436e578384fd5b8435614379816145cf565b966020860135965060408601359560600135945092505050565b600080600080600060a086880312156143aa578081fd5b85356143b5816145cf565b97602087013597506040870135966060810135965060800135945092505050565b6000815180845260208085019450808401835b8381101561440e5781516001600160a01b0316875295820195908201906001016143e9565b509495945050505050565b6000815180845260208085019450808401835b8381101561440e5781518752958201959082019060010161442c565b6001600160a01b038616815284602082015283604082015260a06060820152600061447660a08301856143d6565b82810360808401526144888185614419565b98975050505050505050565b60006101406001600160a01b03808e1684528c60208501528b60408501528a60608501528960808501528160a08501526144d08285018a6143d6565b915083820360c08501526144e48289614419565b961660e0840152505061010081019290925261012090910152979650505050505050565b602081016006831061452a57634e487b7160e01b600052602160045260246000fd5b91905290565b60008219821115614543576145436145b9565b500190565b60008261456357634e487b7160e01b81526012600452602481fd5b500490565b6000816000190483118215151615614582576145826145b9565b500290565b600082821015614599576145996145b9565b500390565b60006000198214156145b2576145b26145b9565b5060010190565b634e487b7160e01b600052601160045260246000fd5b6001600160a01b03811681146141e757600080fdfea2646970667358221220cdb3c0046d15a3d3a365f9d3f80211ff412211dfa3c9d41bfc17dc23331cea3364736f6c63430008040033",
  "linkReferences": {},
  "deployedLinkReferences": {}
}