{
  "_format": "hh-sol-artifact-1",
  "contractName": "MarketState",
  "sourceName": "contracts/MarketState.sol",
  "abi": [
    {
      "inputs": [
        {
          "internalType": "address",
          "name": "nftAddr",
          "type": "address"
        },
        {
          "internalType": "uint256",
          "name": "tokenId",
          "type": "uint256"
        }
      ],
      "name": "getStatus",
      "outputs": [
        {
          "internalType": "enum MarketState.Status",
          "name": "",
          "type": "uint8"
        }
      ],
      "stateMutability": "view",
      "type": "function"
    },
    {
      "inputs": [
        {
          "internalType": "address",
          "name": "operator",
          "type": "address"
        },
        {
          "internalType": "address",
          "name": "from",
          "type": "address"
        },
        {
          "internalType": "uint256",
          "name": "tokenId",
          "type": "uint256"
        },
        {
          "internalType": "bytes",
          "name": "data",
          "type": "bytes"
        }
      ],
      "name": "onERC721Received",
      "outputs": [
        {
          "internalType": "bytes4",
          "name": "",
          "type": "bytes4"
        }
      ],
      "stateMutability": "nonpayable",
      "type": "function"
    }
  ],
  "bytecode": "0x608060405234801561001057600080fd5b50610259806100206000396000f3fe608060405234801561001057600080fd5b50600436106100365760003560e01c8063150b7a021461003b5780634ce0ef95146100a9575b600080fd5b610073610049366004610123565b7f150b7a020000000000000000000000000000000000000000000000000000000095945050505050565b6040517fffffffff0000000000000000000000000000000000000000000000000000000090911681526020015b60405180910390f35b6100ed6100b73660046101b9565b73ffffffffffffffffffffffffffffffffffffffff91909116600090815260208181526040808320938352929052205460ff1690565b6040516100a091906101e2565b803573ffffffffffffffffffffffffffffffffffffffff8116811461011e57600080fd5b919050565b60008060008060006080868803121561013a578081fd5b610143866100fa565b9450610151602087016100fa565b935060408601359250606086013567ffffffffffffffff80821115610174578283fd5b818801915088601f830112610187578283fd5b813581811115610195578384fd5b8960208285010111156101a6578384fd5b9699959850939650602001949392505050565b600080604083850312156101cb578182fd5b6101d4836100fa565b946020939093013593505050565b602081016006831061021d577f4e487b7100000000000000000000000000000000000000000000000000000000600052602160045260246000fd5b9190529056fea2646970667358221220c3b2a43e9363251b3bcbdb2eee7a504dc376cb0f5065a74f308a9f324d320e8264736f6c63430008040033",
  "linkReferences": {},
  "deployedLinkReferences": {}
}