{
  "_format": "hh-sol-artifact-1",
  "contractName": "DutchAuction",
  "sourceName": "contracts/DutchAuction.sol",
  "abi": [
    {
      "anonymous": false,
      "inputs": [
        {
          "indexed": true,
          "internalType": "address",
          "name": "nftAddr",
          "type": "address"
        },
        {
          "indexed": true,
          "internalType": "address",
          "name": "buyer",
          "type": "address"
        },
        {
          "indexed": true,
          "internalType": "uint256",
          "name": "tokenId",
          "type": "uint256"
        },
        {
          "indexed": false,
          "internalType": "uint256",
          "name": "price",
          "type": "uint256"
        }
      ],
      "name": "DutchAuctionBid",
      "type": "event"
    },
    {
      "anonymous": false,
      "inputs": [
        {
          "indexed": true,
          "internalType": "address",
          "name": "nftAddr",
          "type": "address"
        },
        {
          "indexed": true,
          "internalType": "address",
          "name": "seller",
          "type": "address"
        },
        {
          "indexed": true,
          "internalType": "uint256",
          "name": "tokenId",
          "type": "uint256"
        }
      ],
      "name": "DutchAuctionRevoke",
      "type": "event"
    },
    {
      "anonymous": false,
      "inputs": [
        {
          "indexed": true,
          "internalType": "address",
          "name": "nftAddr",
          "type": "address"
        },
        {
          "indexed": true,
          "internalType": "address",
          "name": "seller",
          "type": "address"
        },
        {
          "indexed": true,
          "internalType": "uint256",
          "name": "tokenId",
          "type": "uint256"
        },
        {
          "indexed": false,
          "internalType": "uint256",
          "name": "price",
          "type": "uint256"
        },
        {
          "indexed": false,
          "internalType": "uint256",
          "name": "floorPrice",
          "type": "uint256"
        },
        {
          "indexed": false,
          "internalType": "uint256",
          "name": "endTime",
          "type": "uint256"
        }
      ],
      "name": "DutchAuctionStart",
      "type": "event"
    },
    {
      "inputs": [],
      "name": "DUTCH_AUCTION_DROP_INTERVAL",
      "outputs": [
        {
          "internalType": "uint256",
          "name": "",
          "type": "uint256"
        }
      ],
      "stateMutability": "view",
      "type": "function"
    },
    {
      "inputs": [
        {
          "internalType": "address",
          "name": "",
          "type": "address"
        },
        {
          "internalType": "uint256",
          "name": "",
          "type": "uint256"
        }
      ],
      "name": "_duOrderMap",
      "outputs": [
        {
          "internalType": "address",
          "name": "owner",
          "type": "address"
        },
        {
          "internalType": "uint256",
          "name": "startPrice",
          "type": "uint256"
        },
        {
          "internalType": "uint256",
          "name": "floorPrice",
          "type": "uint256"
        },
        {
          "internalType": "uint256",
          "name": "startTime",
          "type": "uint256"
        },
        {
          "internalType": "uint256",
          "name": "endTime",
          "type": "uint256"
        },
        {
          "internalType": "uint256",
          "name": "discountRate",
          "type": "uint256"
        }
      ],
      "stateMutability": "view",
      "type": "function"
    },
    {
      "inputs": [
        {
          "internalType": "address",
          "name": "nftAddr",
          "type": "address"
        },
        {
          "internalType": "uint256",
          "name": "tokenId",
          "type": "uint256"
        }
      ],
      "name": "duAuctionBid",
      "outputs": [],
      "stateMutability": "payable",
      "type": "function"
    },
    {
      "inputs": [
        {
          "internalType": "address",
          "name": "nftAddr",
          "type": "address"
        },
        {
          "internalType": "uint256",
          "name": "tokenId",
          "type": "uint256"
        }
      ],
      "name": "duAuctionRevoke",
      "outputs": [],
      "stateMutability": "nonpayable",
      "type": "function"
    },
    {
      "inputs": [
        {
          "internalType": "address",
          "name": "nftAddr",
          "type": "address"
        },
        {
          "internalType": "uint256",
          "name": "tokenId",
          "type": "uint256"
        },
        {
          "internalType": "uint256",
          "name": "price",
          "type": "uint256"
        },
        {
          "internalType": "uint256",
          "name": "floorPrice",
          "type": "uint256"
        },
        {
          "internalType": "uint256",
          "name": "endTime",
          "type": "uint256"
        }
      ],
      "name": "duAuctionStart",
      "outputs": [],
      "stateMutability": "nonpayable",
      "type": "function"
    },
    {
      "inputs": [
        {
          "internalType": "address",
          "name": "nftAddr",
          "type": "address"
        },
        {
          "internalType": "uint256",
          "name": "tokenId",
          "type": "uint256"
        }
      ],
      "name": "getDuAuction",
      "outputs": [
        {
          "internalType": "address",
          "name": "owner",
          "type": "address"
        },
        {
          "internalType": "uint256",
          "name": "startPrice",
          "type": "uint256"
        },
        {
          "internalType": "uint256",
          "name": "floorPrice",
          "type": "uint256"
        },
        {
          "internalType": "uint256",
          "name": "startTime",
          "type": "uint256"
        },
        {
          "internalType": "uint256",
          "name": "endTime",
          "type": "uint256"
        },
        {
          "internalType": "uint256",
          "name": "nowPrice",
          "type": "uint256"
        }
      ],
      "stateMutability": "view",
      "type": "function"
    },
    {
      "inputs": [
        {
          "internalType": "address",
          "name": "nftAddr",
          "type": "address"
        },
        {
          "internalType": "uint256",
          "name": "tokenId",
          "type": "uint256"
        }
      ],
      "name": "getStatus",
      "outputs": [
        {
          "internalType": "enum MarketState.Status",
          "name": "",
          "type": "uint8"
        }
      ],
      "stateMutability": "view",
      "type": "function"
    },
    {
      "inputs": [
        {
          "internalType": "address",
          "name": "operator",
          "type": "address"
        },
        {
          "internalType": "address",
          "name": "from",
          "type": "address"
        },
        {
          "internalType": "uint256",
          "name": "tokenId",
          "type": "uint256"
        },
        {
          "internalType": "bytes",
          "name": "data",
          "type": "bytes"
        }
      ],
      "name": "onERC721Received",
      "outputs": [
        {
          "internalType": "bytes4",
          "name": "",
          "type": "bytes4"
        }
      ],
      "stateMutability": "nonpayable",
      "type": "function"
    }
  ],
  "bytecode": "0x608060405234801561001057600080fd5b50611381806100206000396000f3fe60806040526004361061007b5760003560e01c80633802d7671161004e5780633802d767146101505780634ce0ef95146101ec578063bd0e201b1461023d578063f323965e1461025d57600080fd5b806308327c4b14610080578063150b7a02146100a25780631a5363651461011d5780631f5e72ab1461013d575b600080fd5b34801561008c57600080fd5b506100a061009b366004611234565b610281565b005b3480156100ae57600080fd5b506100e76100bd36600461119a565b7f150b7a020000000000000000000000000000000000000000000000000000000095945050505050565b6040517fffffffff0000000000000000000000000000000000000000000000000000000090911681526020015b60405180910390f35b34801561012957600080fd5b506100a061013836600461125f565b610485565b6100a061014b366004611234565b610777565b34801561015c57600080fd5b506101b561016b366004611234565b600160208181526000938452604080852090915291835291208054918101546002820154600383015460048401546005909401546001600160a01b03909516949293919290919086565b604080516001600160a01b0390971687526020870195909552938501929092526060840152608083015260a082015260c001610114565b3480156101f857600080fd5b50610230610207366004611234565b6001600160a01b0391909116600090815260208181526040808320938352929052205460ff1690565b60405161011491906112a2565b34801561024957600080fd5b506101b5610258366004611234565b610b7a565b34801561026957600080fd5b5061027361025881565b604051908152602001610114565b6001600160a01b03821660009081526020818152604080832084845290915290205460029060ff1660058111156102c857634e487b7160e01b600052602160045260246000fd5b1461031a5760405162461bcd60e51b815260206004820152601360248201527f4e6f7420696e207468652061756374696f6e210000000000000000000000000060448201526064015b60405180910390fd5b6001600160a01b038083166000908152600160208181526040808420868552825292839020835160c08101855281549095168086529281015491850191909152600281015492840192909252600382015460608401526004820154608084015260059091015460a083015233146103d35760405162461bcd60e51b815260206004820152600960248201527f4e6f74206f776e657200000000000000000000000000000000000000000000006044820152606401610311565b6103e283838360000151610d03565b6103ee83836000610e49565b6001600160a01b038084166000818152600160208181526040808420888552909152808320805473ffffffffffffffffffffffffffffffffffffffff1916815591820183905560028201839055600382018390556004820183905560059091018290558451905186949190911692917feba51160295dcc1b2c60ea37e95a90b95d27ab24548100ef966a9b63e5371a7891a4505050565b6001600160a01b03851660009081526020818152604080832087845290915281205460ff1660058111156104c957634e487b7160e01b600052602160045260246000fd5b146105165760405162461bcd60e51b815260206004820152601160248201527f43616e27742053656c6c20416761696e210000000000000000000000000000006044820152606401610311565b8183101561058c5760405162461bcd60e51b815260206004820152602860248201527f7072696365206973206e65656465642067726561746572207468616e20666c6f60448201527f6f725072696365210000000000000000000000000000000000000000000000006064820152608401610311565b428110156106025760405162461bcd60e51b815260206004820152602160248201527f656e6454696d65206973206e656564656420616674657220737461727454696d60448201527f65000000000000000000000000000000000000000000000000000000000000006064820152608401610311565b600061060e8686610e9f565b90504260006102586106208386611309565b61062a8789611309565b61063491906112ca565b61063e91906112ea565b90506040518060c00160405280846001600160a01b0316815260200187815260200186815260200142815260200185815260200182815250600160008a6001600160a01b03166001600160a01b03168152602001908152602001600020600089815260200190815260200160002060008201518160000160006101000a8154816001600160a01b0302191690836001600160a01b031602179055506020820151816001015560408201518160020155606082015181600301556080820151816004015560a0820151816005015590505061071a88886002610e49565b604080518781526020810187905290810185905287906001600160a01b0380861691908b16907f52833f7317b2f5d42c1f714a3297b6a23964ce21465992462a8ed97ec42fcee69060600160405180910390a45050505050505050565b6040516331a9108f60e11b81526004810182905282908290829030906001600160a01b03831690636352211e9060240160206040518083038186803b1580156107bf57600080fd5b505afa1580156107d3573d6000803e3d6000fd5b505050506040513d601f19601f820116820180604052508101906107f79190611177565b6001600160a01b03161461084d5760405162461bcd60e51b815260206004820152600f60248201527f496e76616c69642073657474696e6700000000000000000000000000000000006044820152606401610311565b6001600160a01b03851660009081526020818152604080832087845290915290205460029060ff16600581111561089457634e487b7160e01b600052602160045260246000fd5b146108e15760405162461bcd60e51b815260206004820152601360248201527f4e6f7420696e207468652061756374696f6e21000000000000000000000000006044820152606401610311565b6001600160a01b038086166000908152600160208181526040808420898552825292839020835160c08101855281549095168086529281015491850191909152600281015492840192909252600382015460608401526004820154608084015260059091015460a083015233141561099b5760405162461bcd60e51b815260206004820152600d60248201527f596f7520617265206f776e6572000000000000000000000000000000000000006044820152606401610311565b80608001514211156109ef5760405162461bcd60e51b815260206004820152600b60248201527f49742773204f76657265640000000000000000000000000000000000000000006044820152606401610311565b60006109fb8787610b7a565b9550505050505080341015610a525760405162461bcd60e51b815260206004820152601660248201527f7061796d656e74206973206e6f7420656e6f75676821000000000000000000006044820152606401610311565b610a5d878733610d03565b81516040516001600160a01b039091169082156108fc029083906000818181858888f19350505050158015610a96573d6000803e3d6000fd5b50336108fc610aa58334611309565b6040518115909202916000818181858888f19350505050158015610acd573d6000803e3d6000fd5b50610ada87876000610e49565b6001600160a01b03871660008181526001602081815260408084208b85528252808420805473ffffffffffffffffffffffffffffffffffffffff19168155928301849055600283018490556003830184905560048301849055600590920192909255518381528892339290917f1813e45a4f41523e868754bba85a1b530d13f2d78af45022419131b0bc1f6693910160405180910390a450505050505050565b600080808080806002610bb189896001600160a01b0391909116600090815260208181526040808320938352929052205460ff1690565b6005811115610bd057634e487b7160e01b600052602160045260246000fd5b14610c1d5760405162461bcd60e51b815260206004820152601360248201527f4e6f7420696e207468652061756374696f6e21000000000000000000000000006044820152606401610311565b6001600160a01b0380891660009081526001602081815260408084208c8552825292839020835160c081018552815490951680865292810154918501829052600281015493850184905260038101546060860181905260048201546080870181905260059092015460a0870152929a509098509196509450925042831015610cab5780604001519150610cf8565b610cb4426110e0565b6000610258826060015142610cc99190611309565b610cd391906112ca565b90508160a0015181610ce591906112ea565b8260200151610cf49190611309565b9250505b509295509295509295565b6040516331a9108f60e11b81526004810183905283906000906001600160a01b03831690636352211e9060240160206040518083038186803b158015610d4857600080fd5b505afa158015610d5c573d6000803e3d6000fd5b505050506040513d601f19601f82011682018060405250810190610d809190611177565b90506001600160a01b0381163014610dda5760405162461bcd60e51b815260206004820152601360248201527f4e6f7420696e2074686973206d61726b657421000000000000000000000000006044820152606401610311565b604051632142170760e11b81523060048201526001600160a01b038481166024830152604482018690528316906342842e0e90606401600060405180830381600087803b158015610e2a57600080fd5b505af1158015610e3e573d6000803e3d6000fd5b505050505050505050565b6001600160a01b0383166000908152602081815260408083208584529091529020805482919060ff19166001836005811115610e9557634e487b7160e01b600052602160045260246000fd5b0217905550505050565b6040516331a9108f60e11b815260048101829052600090839082906001600160a01b03831690636352211e9060240160206040518083038186803b158015610ee657600080fd5b505afa158015610efa573d6000803e3d6000fd5b505050506040513d601f19601f82011682018060405250810190610f1e9190611177565b90506001600160a01b038116610f765760405162461bcd60e51b815260206004820152600c60248201527f496e76616c6964206e66742100000000000000000000000000000000000000006044820152606401610311565b6001600160a01b03811630146110d8576040517f081812fc0000000000000000000000000000000000000000000000000000000081526004810185905230906001600160a01b0384169063081812fc9060240160206040518083038186803b158015610fe157600080fd5b505afa158015610ff5573d6000803e3d6000fd5b505050506040513d601f19601f820116820180604052508101906110199190611177565b6001600160a01b03161461106f5760405162461bcd60e51b815260206004820152600b60248201527f756e617070726f766564210000000000000000000000000000000000000000006044820152606401610311565b604051632142170760e11b81526001600160a01b038281166004830152306024830152604482018690528316906342842e0e90606401600060405180830381600087803b1580156110bf57600080fd5b505af11580156110d3573d6000803e3d6000fd5b505050505b949350505050565b611153816040516024016110f691815260200190565b60408051601f198184030181529190526020810180517bffffffffffffffffffffffffffffffffffffffffffffffffffffffff167ff5b1bba900000000000000000000000000000000000000000000000000000000179052611156565b50565b80516a636f6e736f6c652e6c6f67602083016000808483855afa5050505050565b600060208284031215611188578081fd5b815161119381611336565b9392505050565b6000806000806000608086880312156111b1578081fd5b85356111bc81611336565b945060208601356111cc81611336565b935060408601359250606086013567ffffffffffffffff808211156111ef578283fd5b818801915088601f830112611202578283fd5b813581811115611210578384fd5b896020828501011115611221578384fd5b9699959850939650602001949392505050565b60008060408385031215611246578182fd5b823561125181611336565b946020939093013593505050565b600080600080600060a08688031215611276578081fd5b853561128181611336565b97602087013597506040870135966060810135965060800135945092505050565b60208101600683106112c457634e487b7160e01b600052602160045260246000fd5b91905290565b6000826112e557634e487b7160e01b81526012600452602481fd5b500490565b600081600019048311821515161561130457611304611320565b500290565b60008282101561131b5761131b611320565b500390565b634e487b7160e01b600052601160045260246000fd5b6001600160a01b038116811461115357600080fdfea264697066735822122010aa8572c822fae23ec2d71ccbda275ba2a8314cb8ac6044ba4af162df72eb6164736f6c63430008040033",
  "linkReferences": {},
  "deployedLinkReferences": {}
}