{
  "_format": "hh-sol-artifact-1",
  "contractName": "ExchangeAuction",
  "sourceName": "contracts/ExchangeAuction.sol",
  "abi": [
    {
      "anonymous": false,
      "inputs": [
        {
          "indexed": true,
          "internalType": "address",
          "name": "nftAddr",
          "type": "address"
        },
        {
          "indexed": true,
          "internalType": "address",
          "name": "bider",
          "type": "address"
        },
        {
          "indexed": true,
          "internalType": "uint256",
          "name": "tokenId",
          "type": "uint256"
        },
        {
          "indexed": false,
          "internalType": "uint256",
          "name": "exchangeTokenId",
          "type": "uint256"
        }
      ],
      "name": "ExchangeAuctionBid",
      "type": "event"
    },
    {
      "anonymous": false,
      "inputs": [
        {
          "indexed": true,
          "internalType": "address",
          "name": "nftAddr",
          "type": "address"
        },
        {
          "indexed": true,
          "internalType": "uint256",
          "name": "tokenId",
          "type": "uint256"
        },
        {
          "indexed": false,
          "internalType": "uint256",
          "name": "exchangeTokenId",
          "type": "uint256"
        }
      ],
      "name": "ExchangeAuctionEnd",
      "type": "event"
    },
    {
      "anonymous": false,
      "inputs": [
        {
          "indexed": true,
          "internalType": "address",
          "name": "nftAddr",
          "type": "address"
        },
        {
          "indexed": true,
          "internalType": "address",
          "name": "seller",
          "type": "address"
        },
        {
          "indexed": true,
          "internalType": "uint256",
          "name": "tokenId",
          "type": "uint256"
        }
      ],
      "name": "ExchangeAuctionRevoke",
      "type": "event"
    },
    {
      "anonymous": false,
      "inputs": [
        {
          "indexed": true,
          "internalType": "address",
          "name": "nftAddr",
          "type": "address"
        },
        {
          "indexed": true,
          "internalType": "address",
          "name": "seller",
          "type": "address"
        },
        {
          "indexed": true,
          "internalType": "uint256",
          "name": "tokenId",
          "type": "uint256"
        }
      ],
      "name": "ExchangeAuctionStart",
      "type": "event"
    },
    {
      "anonymous": false,
      "inputs": [
        {
          "indexed": true,
          "internalType": "address",
          "name": "nftAddr",
          "type": "address"
        },
        {
          "indexed": true,
          "internalType": "address",
          "name": "bider",
          "type": "address"
        },
        {
          "indexed": true,
          "internalType": "uint256",
          "name": "tokenId",
          "type": "uint256"
        },
        {
          "indexed": false,
          "internalType": "uint256",
          "name": "exchangeTokenId",
          "type": "uint256"
        }
      ],
      "name": "ExchangeAuctionWithdraw",
      "type": "event"
    },
    {
      "inputs": [
        {
          "internalType": "address",
          "name": "nftAddr",
          "type": "address"
        },
        {
          "internalType": "uint256",
          "name": "tokenId",
          "type": "uint256"
        },
        {
          "internalType": "uint256",
          "name": "exchangeTokenId",
          "type": "uint256"
        }
      ],
      "name": "exchangeBid",
      "outputs": [],
      "stateMutability": "nonpayable",
      "type": "function"
    },
    {
      "inputs": [
        {
          "internalType": "address",
          "name": "nftAddr",
          "type": "address"
        },
        {
          "internalType": "uint256",
          "name": "tokenId",
          "type": "uint256"
        },
        {
          "internalType": "uint256",
          "name": "exchangeTokenId",
          "type": "uint256"
        }
      ],
      "name": "exchangeEnd",
      "outputs": [],
      "stateMutability": "nonpayable",
      "type": "function"
    },
    {
      "inputs": [
        {
          "internalType": "address",
          "name": "nftAddr",
          "type": "address"
        },
        {
          "internalType": "uint256",
          "name": "tokenId",
          "type": "uint256"
        }
      ],
      "name": "exchangeRevoke",
      "outputs": [],
      "stateMutability": "nonpayable",
      "type": "function"
    },
    {
      "inputs": [
        {
          "internalType": "address",
          "name": "nftAddr",
          "type": "address"
        },
        {
          "internalType": "uint256",
          "name": "tokenId",
          "type": "uint256"
        },
        {
          "internalType": "uint256",
          "name": "endTime",
          "type": "uint256"
        }
      ],
      "name": "exchangeStart",
      "outputs": [],
      "stateMutability": "nonpayable",
      "type": "function"
    },
    {
      "inputs": [
        {
          "internalType": "address",
          "name": "nftAddr",
          "type": "address"
        },
        {
          "internalType": "uint256",
          "name": "tokenId",
          "type": "uint256"
        },
        {
          "internalType": "uint256",
          "name": "exchangeTokenId",
          "type": "uint256"
        }
      ],
      "name": "exchangeWithdraw",
      "outputs": [],
      "stateMutability": "nonpayable",
      "type": "function"
    },
    {
      "inputs": [
        {
          "internalType": "address",
          "name": "nftAddr",
          "type": "address"
        },
        {
          "internalType": "uint256",
          "name": "tokenId",
          "type": "uint256"
        }
      ],
      "name": "getExchange",
      "outputs": [
        {
          "internalType": "address",
          "name": "owner",
          "type": "address"
        },
        {
          "internalType": "uint256",
          "name": "startTime",
          "type": "uint256"
        },
        {
          "internalType": "uint256",
          "name": "endTime",
          "type": "uint256"
        },
        {
          "internalType": "address[]",
          "name": "bidList",
          "type": "address[]"
        },
        {
          "internalType": "uint256[]",
          "name": "bidTokenList",
          "type": "uint256[]"
        }
      ],
      "stateMutability": "view",
      "type": "function"
    },
    {
      "inputs": [
        {
          "internalType": "address",
          "name": "nftAddr",
          "type": "address"
        },
        {
          "internalType": "uint256",
          "name": "tokenId",
          "type": "uint256"
        }
      ],
      "name": "getStatus",
      "outputs": [
        {
          "internalType": "enum MarketState.Status",
          "name": "",
          "type": "uint8"
        }
      ],
      "stateMutability": "view",
      "type": "function"
    },
    {
      "inputs": [
        {
          "internalType": "address",
          "name": "operator",
          "type": "address"
        },
        {
          "internalType": "address",
          "name": "from",
          "type": "address"
        },
        {
          "internalType": "uint256",
          "name": "tokenId",
          "type": "uint256"
        },
        {
          "internalType": "bytes",
          "name": "data",
          "type": "bytes"
        }
      ],
      "name": "onERC721Received",
      "outputs": [
        {
          "internalType": "bytes4",
          "name": "",
          "type": "bytes4"
        }
      ],
      "stateMutability": "nonpayable",
      "type": "function"
    }
  ],
  "bytecode": "0x608060405234801561001057600080fd5b506118d9806100206000396000f3fe608060405234801561001057600080fd5b50600436106100885760003560e01c806355d73d821161005b57806355d73d8214610167578063975636331461017a578063bcb3c7811461019e578063f033cda3146101b157600080fd5b8063150b7a021461008d5780632a4db750146100fb57806348ea07ee146101105780634ce0ef9514610123575b600080fd5b6100c561009b3660046116a7565b7f150b7a020000000000000000000000000000000000000000000000000000000095945050505050565b6040517fffffffff0000000000000000000000000000000000000000000000000000000090911681526020015b60405180910390f35b61010e61010936600461176c565b6101c4565b005b61010e61011e36600461176c565b6104f3565b61015a610131366004611741565b6001600160a01b0391909116600090815260208181526040808320938352929052205460ff1690565b6040516100f2919061183f565b61010e61017536600461176c565b610820565b61018d610188366004611741565b61095a565b6040516100f29594939291906117a0565b61010e6101ac36600461176c565b610b8c565b61010e6101bf366004611741565b610fa6565b6040516331a9108f60e11b81526004810182905283908290829030906001600160a01b03831690636352211e9060240160206040518083038186803b15801561020c57600080fd5b505afa158015610220573d6000803e3d6000fd5b505050506040513d601f19601f820116820180604052508101906102449190611684565b6001600160a01b03161461029f5760405162461bcd60e51b815260206004820152600f60248201527f496e76616c69642073657474696e67000000000000000000000000000000000060448201526064015b60405180910390fd5b6001600160a01b03861660009081526020818152604080832088845290915290205460049060ff1660058111156102e657634e487b7160e01b600052602160045260246000fd5b146103295760405162461bcd60e51b81526020600482015260136024820152724e6f7420696e207468652061756374696f6e2160681b6044820152606401610296565b6001600160a01b0380871660009081526001602090815260408083208984528252808320888452600481019092529091205490911633146103d25760405162461bcd60e51b815260206004820152602160248201527f596f7520617265206e6f742065786368616e6765546f6b656e4964206f776e6560448201527f72000000000000000000000000000000000000000000000000000000000000006064820152608401610296565b6001600160a01b03871660009081526020818152604080832088845290915290205460059060ff16600581111561041957634e487b7160e01b600052602160045260246000fd5b146104665760405162461bcd60e51b815260206004820181905260248201527f596f757220746f6b656e206973206e6f7420696e2065786368616e67696e67216044820152606401610296565b61047187863361126d565b6000858152600482016020526040812080546001600160a01b031916905561049c90889087906113b3565b85336001600160a01b0316886001600160a01b03167f77f6391decae7653d60fbb090e2b157242ca29bcda90558e6a77dcf0ac7942de886040516104e291815260200190565b60405180910390a450505050505050565b6001600160a01b03831660009081526020818152604080832085845290915290205460049060ff16600581111561053a57634e487b7160e01b600052602160045260246000fd5b1461057d5760405162461bcd60e51b81526020600482015260136024820152724e6f7420696e207468652061756374696f6e2160681b6044820152606401610296565b6040516331a9108f60e11b815260048101829052839033906001600160a01b03831690636352211e9060240160206040518083038186803b1580156105c157600080fd5b505afa1580156105d5573d6000803e3d6000fd5b505050506040513d601f19601f820116820180604052508101906105f99190611684565b6001600160a01b03161461064f5760405162461bcd60e51b815260206004820152601160248201527f596f7520617265206e6f74206f776e65720000000000000000000000000000006044820152606401610296565b6001600160a01b03841660009081526020818152604080832085845290915281205460ff16600581111561069357634e487b7160e01b600052602160045260246000fd5b146107065760405162461bcd60e51b815260206004820152602960248201527f596f757220746f6b656e20697320696e2073656c6c696e672c2043616e27742060448201527f65786368616e67652100000000000000000000000000000000000000000000006064820152608401610296565b6001600160a01b03841660009081526001602090815260408083208684529091529020600281015442111561077d5760405162461bcd60e51b815260206004820152600b60248201527f49742773204f76657265640000000000000000000000000000000000000000006044820152606401610296565b6107878584611409565b5060008381526004820160209081526040822080546001600160a01b031916331790556003830180546001810182559083529120018390556107cb858460056113b3565b83336001600160a01b0316866001600160a01b03167f48acb2d2cdc4a28aa4b7cb36a27ce3f9443bd2d558a7c69516bf6422f9fd419b8660405161081191815260200190565b60405180910390a45050505050565b6001600160a01b03831660009081526020818152604080832085845290915281205460ff16600581111561086457634e487b7160e01b600052602160045260246000fd5b146108b15760405162461bcd60e51b815260206004820152601160248201527f43616e27742053656c6c20416761696e210000000000000000000000000000006044820152606401610296565b60006108bd8484611409565b6001600160a01b03858116600090815260016020818152604080842089855290915290912080546001600160a01b031916928416929092178255429082015560028101849055909150610912858560046113b3565b82826001600160a01b0316866001600160a01b03167fbb13336694fe16ba825850b8676bf4f65823f176a68f84991349557ef031dc7f60405160405180910390a45050505050565b60008080606080600461099188886001600160a01b0391909116600090815260208181526040808320938352929052205460ff1690565b60058111156109b057634e487b7160e01b600052602160045260246000fd5b146109fd5760405162461bcd60e51b815260206004820152600f60248201527f4e6f7420696e2073656c6c696e672100000000000000000000000000000000006044820152606401610296565b6001600160a01b0380881660009081526001602081815260408084208b85528252928390208054928101546002820154600383018054875181870281018701909852808852959097169b509099509750939190830182828015610a7f57602002820191906000526020600020905b815481526020019060010190808311610a6b575b50505050509150815167ffffffffffffffff811115610aae57634e487b7160e01b600052604160045260246000fd5b604051908082528060200260200182016040528015610ad7578160200160208202803683370190505b50925060005b8251811015610b8057816004016000848381518110610b0c57634e487b7160e01b600052603260045260246000fd5b6020026020010151815260200190815260200160002060009054906101000a90046001600160a01b0316848281518110610b5657634e487b7160e01b600052603260045260246000fd5b6001600160a01b039092166020928302919091019091015280610b7881611867565b915050610add565b50509295509295909350565b6001600160a01b03831660009081526020818152604080832085845290915290205460049060ff166005811115610bd357634e487b7160e01b600052602160045260246000fd5b14610c165760405162461bcd60e51b81526020600482015260136024820152724e6f7420696e207468652061756374696f6e2160681b6044820152606401610296565b6001600160a01b038084166000908152600160209081526040808320868452909152902080549091163314610c795760405162461bcd60e51b81526020600482015260096024820152682737ba1037bbb732b960b91b6044820152606401610296565b60008281526004820160205260409020546001600160a01b0316610d055760405162461bcd60e51b815260206004820152602c60248201527f207468652065786368616e6765546f6b656e206e6f74207061727420696e207460448201527f6869732061756374696f6e2100000000000000000000000000000000000000006064820152608401610296565b8054610d1d90859084906001600160a01b031661126d565b6000828152600482016020526040902054610d4490859085906001600160a01b031661126d565b6000828152600482016020526040812080546001600160a01b03191690555b6003820154811015610ef55760006001600160a01b0316826004016000846003018481548110610da357634e487b7160e01b600052603260045260246000fd5b600091825260208083209091015483528201929092526040019020546001600160a01b031614610ee357610e5285836003018381548110610df457634e487b7160e01b600052603260045260246000fd5b9060005260206000200154846004016000866003018681548110610e2857634e487b7160e01b600052603260045260246000fd5b600091825260208083209091015483528201929092526040019020546001600160a01b031661126d565b816004016000836003018381548110610e7b57634e487b7160e01b600052603260045260246000fd5b9060005260206000200154815260200190815260200160002060006101000a8154906001600160a01b030219169055610ee385836003018381548110610ed157634e487b7160e01b600052603260045260246000fd5b906000526020600020015460006113b3565b80610eed81611867565b915050610d63565b50610f02848460006113b3565b610f0e848360006113b3565b6001600160a01b0384166000908152600160208181526040808420878552909152822080546001600160a01b03191681559081018290556002810182905590610f5a600383018261164a565b505082846001600160a01b03167f7f7a395e2ffdba25831682574025530916480b214076d7b82777ccf1f2a08f1e84604051610f9891815260200190565b60405180910390a350505050565b6001600160a01b03821660009081526020818152604080832084845290915290205460049060ff166005811115610fed57634e487b7160e01b600052602160045260246000fd5b146110305760405162461bcd60e51b81526020600482015260136024820152724e6f7420696e207468652061756374696f6e2160681b6044820152606401610296565b6001600160a01b0380831660009081526001602090815260408083208584529091529020805490911633146110935760405162461bcd60e51b81526020600482015260096024820152682737ba1037bbb732b960b91b6044820152606401610296565b60005b60038201548110156111b85760006001600160a01b03168260040160008460030184815481106110d657634e487b7160e01b600052603260045260246000fd5b600091825260208083209091015483528201929092526040019020546001600160a01b0316146111a65761112784836003018381548110610df457634e487b7160e01b600052603260045260246000fd5b81600401600083600301838154811061115057634e487b7160e01b600052603260045260246000fd5b9060005260206000200154815260200190815260200160002060006101000a8154906001600160a01b0302191690556111a684836003018381548110610ed157634e487b7160e01b600052603260045260246000fd5b806111b081611867565b915050611096565b5080546111d190849084906001600160a01b031661126d565b6111dd838360006113b3565b6001600160a01b0383166000908152600160208181526040808420868552909152822080546001600160a01b03191681559081018290556002810182905590611229600383018261164a565b5050805460405183916001600160a01b0390811691908616907f5bf8c346afb1df1233652539f0e7157310501e1fa30be94234233f411602e95890600090a4505050565b6040516331a9108f60e11b81526004810183905283906000906001600160a01b03831690636352211e9060240160206040518083038186803b1580156112b257600080fd5b505afa1580156112c6573d6000803e3d6000fd5b505050506040513d601f19601f820116820180604052508101906112ea9190611684565b90506001600160a01b03811630146113445760405162461bcd60e51b815260206004820152601360248201527f4e6f7420696e2074686973206d61726b657421000000000000000000000000006044820152606401610296565b604051632142170760e11b81523060048201526001600160a01b038481166024830152604482018690528316906342842e0e90606401600060405180830381600087803b15801561139457600080fd5b505af11580156113a8573d6000803e3d6000fd5b505050505050505050565b6001600160a01b0383166000908152602081815260408083208584529091529020805482919060ff191660018360058111156113ff57634e487b7160e01b600052602160045260246000fd5b0217905550505050565b6040516331a9108f60e11b815260048101829052600090839082906001600160a01b03831690636352211e9060240160206040518083038186803b15801561145057600080fd5b505afa158015611464573d6000803e3d6000fd5b505050506040513d601f19601f820116820180604052508101906114889190611684565b90506001600160a01b0381166114e05760405162461bcd60e51b815260206004820152600c60248201527f496e76616c6964206e66742100000000000000000000000000000000000000006044820152606401610296565b6001600160a01b0381163014611642576040517f081812fc0000000000000000000000000000000000000000000000000000000081526004810185905230906001600160a01b0384169063081812fc9060240160206040518083038186803b15801561154b57600080fd5b505afa15801561155f573d6000803e3d6000fd5b505050506040513d601f19601f820116820180604052508101906115839190611684565b6001600160a01b0316146115d95760405162461bcd60e51b815260206004820152600b60248201527f756e617070726f766564210000000000000000000000000000000000000000006044820152606401610296565b604051632142170760e11b81526001600160a01b038281166004830152306024830152604482018690528316906342842e0e90606401600060405180830381600087803b15801561162957600080fd5b505af115801561163d573d6000803e3d6000fd5b505050505b949350505050565b5080546000825590600052602060002090810190611668919061166b565b50565b5b80821115611680576000815560010161166c565b5090565b600060208284031215611695578081fd5b81516116a08161188e565b9392505050565b6000806000806000608086880312156116be578081fd5b85356116c98161188e565b945060208601356116d98161188e565b935060408601359250606086013567ffffffffffffffff808211156116fc578283fd5b818801915088601f83011261170f578283fd5b81358181111561171d578384fd5b89602082850101111561172e578384fd5b9699959850939650602001949392505050565b60008060408385031215611753578182fd5b823561175e8161188e565b946020939093013593505050565b600080600060608486031215611780578283fd5b833561178b8161188e565b95602085013595506040909401359392505050565b600060a082016001600160a01b0380891684526020888186015287604086015260a0606086015282875180855260c0870191508289019450855b818110156117f85785518516835294830194918301916001016117da565b50508581036080870152865180825290820193509150808601845b8381101561182f57815185529382019390820190600101611813565b50929a9950505050505050505050565b602081016006831061186157634e487b7160e01b600052602160045260246000fd5b91905290565b600060001982141561188757634e487b7160e01b81526011600452602481fd5b5060010190565b6001600160a01b038116811461166857600080fdfea2646970667358221220b13f205c5bf0b991b9f521483eb867e509a524b938c4b1edb71cecd1449b8fbe64736f6c63430008040033",
  "linkReferences": {},
  "deployedLinkReferences": {}
}