{
  "_format": "hh-sol-artifact-1",
  "contractName": "MyMulticall",
  "sourceName": "contracts/Multicall.sol",
  "abi": [
    {
      "inputs": [
        {
          "internalType": "address",
          "name": "target",
          "type": "address"
        },
        {
          "internalType": "bytes[]",
          "name": "data",
          "type": "bytes[]"
        }
      ],
      "name": "multicall",
      "outputs": [
        {
          "internalType": "bytes[]",
          "name": "results",
          "type": "bytes[]"
        }
      ],
      "stateMutability": "nonpayable",
      "type": "function"
    },
    {
      "inputs": [
        {
          "internalType": "bytes[]",
          "name": "data",
          "type": "bytes[]"
        }
      ],
      "name": "multicall",
      "outputs": [
        {
          "internalType": "bytes[]",
          "name": "results",
          "type": "bytes[]"
        }
      ],
      "stateMutability": "nonpayable",
      "type": "function"
    }
  ],
  "bytecode": "0x608060405234801561001057600080fd5b50610680806100206000396000f3fe608060405234801561001057600080fd5b50600436106100355760003560e01c8062c258291461003a578063ac9650d814610063575b600080fd5b61004d610048366004610420565b610076565b60405161005a9190610513565b60405180910390f35b61004d61007136600461048b565b610197565b60608167ffffffffffffffff81111561009f57634e487b7160e01b600052604160045260246000fd5b6040519080825280602002602001820160405280156100d257816020015b60608152602001906001900390816100bd5790505b50905060005b8281101561018e576101508585858481811061010457634e487b7160e01b600052603260045260246000fd5b90506020028101906101169190610587565b8080601f01602080910402602001604051908101604052809392919081815260200183838082843760009201919091525061026a92505050565b82828151811061017057634e487b7160e01b600052603260045260246000fd5b60200260200101819052508080610186906105fc565b9150506100d8565b505b9392505050565b60608167ffffffffffffffff8111156101c057634e487b7160e01b600052604160045260246000fd5b6040519080825280602002602001820160405280156101f357816020015b60608152602001906001900390816101de5790505b50905060005b82811015610263576102253085858481811061010457634e487b7160e01b600052603260045260246000fd5b82828151811061024557634e487b7160e01b600052603260045260246000fd5b6020026020010181905250808061025b906105fc565b9150506101f9565b5092915050565b6060610190838360405180606001604052806027815260200161062460279139606073ffffffffffffffffffffffffffffffffffffffff84163b61031b5760405162461bcd60e51b815260206004820152602660248201527f416464726573733a2064656c65676174652063616c6c20746f206e6f6e2d636f60448201527f6e7472616374000000000000000000000000000000000000000000000000000060648201526084015b60405180910390fd5b6000808573ffffffffffffffffffffffffffffffffffffffff168560405161034391906104f7565b600060405180830381855af49150503d806000811461037e576040519150601f19603f3d011682016040523d82523d6000602084013e610383565b606091505b509150915061039382828661039d565b9695505050505050565b606083156103ac575081610190565b8251156103bc5782518084602001fd5b8160405162461bcd60e51b81526004016103129190610574565b60008083601f8401126103e7578182fd5b50813567ffffffffffffffff8111156103fe578182fd5b6020830191508360208260051b850101111561041957600080fd5b9250929050565b600080600060408486031215610434578283fd5b833573ffffffffffffffffffffffffffffffffffffffff81168114610457578384fd5b9250602084013567ffffffffffffffff811115610472578283fd5b61047e868287016103d6565b9497909650939450505050565b6000806020838503121561049d578182fd5b823567ffffffffffffffff8111156104b3578283fd5b6104bf858286016103d6565b90969095509350505050565b600081518084526104e38160208601602086016105cc565b601f01601f19169290920160200192915050565b600082516105098184602087016105cc565b9190910192915050565b6000602080830181845280855180835260408601915060408160051b8701019250838701855b8281101561056757603f198886030184526105558583516104cb565b94509285019290850190600101610539565b5092979650505050505050565b60208152600061019060208301846104cb565b6000808335601e1984360301811261059d578283fd5b83018035915067ffffffffffffffff8211156105b7578283fd5b60200191503681900382131561041957600080fd5b60005b838110156105e75781810151838201526020016105cf565b838111156105f6576000848401525b50505050565b600060001982141561061c57634e487b7160e01b81526011600452602481fd5b506001019056fe416464726573733a206c6f772d6c6576656c2064656c65676174652063616c6c206661696c6564a264697066735822122015cab941249b3c3387832ba48540f4082c7c8dca25941b97787e3160034a4cb164736f6c63430008040033",
  "linkReferences": {},
  "deployedLinkReferences": {}
}